:020000040800F2
:10000000A0390020DD01000853340008AD3100089C
:10001000433400082D1700085D6000080000000050
:10002000000000000000000000000000DD56000895
:100030008D190008000000006F0200085D590008DB
:10004000F7010008F7010008F7010008F7010008B0
:10005000F7010008F7010008751F0008CD1F000810
:10006000F7010008F7010008F7010008F701000890
:10007000F7010008F7010008F7010008F701000880
:10008000F7010008F7010008F7010008F701000870
:10009000F7010008F7010008F70100082520000813
:1000A000F7010008955A0008F7010008F701000859
:1000B0006D5B0008595C0008355D0008F701000819
:1000C000F7010008F7010008F7010008F701000830
:1000D000F7010008F7010008895F0008F701000830
:1000E000F7010008F7010008F7010008F701000810
:1000F000F7010008F7010008F7010008F701000800
:10010000F7010008F7010008F7010008F7010008EF
:10011000F7010008F7010008F7010008115E000868
:10012000F7010008F7010008F7010008F7010008CF
:10013000F70100080000000000000000F7010008BF
:10014000F7010008F7010008F7010008F7010008AF
:10015000F7010008F7010008F7010008F70100089F
:10016000F7010008F7010008F7010008F70100088F
:10017000F7010008F7010008F7010008000000007F
:1001800000000000F701000800000000000000006F
:10019000F70100080000000000000000F70100085F
:1001A000000000000000000000000000F70100084F
:1001B000F7010008F7010008F7010008F70100083F
:1001C000F7010008DFF810D000F066FC0048004797
:1001D000E16C0008AFF30080A0390020064880479A
:1001E00006480047FEE7FEE7FEE7FEE7FEE7FEE71C
:1001F000FEE7FEE7FEE7FEE7415A0008C5010008FA
:1002000072B6704762B67047EFF3108072B67047EF
:1002100080F310887047B0FA80F0704790FAA0F031
:10022000704730BF704720BF70470000EFF3108069
:1002300072B6704780F3108870471D484FF0FF0179
:100240000170002080F309881A48012101701A48C2
:100250004FF08051016062B6FEE717484FF08051C1
:100260000160704714484FF080510160704772B6CA
:10027000EFF3098028B1203880E8F00F0F490968B2
:10028000086000B50E4880475DF804EB0D480E4944
:100290000A78027009480D490A680260106890E8FF
:1002A000F00F203080F309884EF0040E62B67047DC
:1002B00022ED00E08F09002004ED00E0AC090020F1
:1002C000D53B00088C0900208D090020B4090020CE
:1002D0002DE9F05F0546002092469B46884606467B
:1002E000814640241BE0284641464746224600F00E
:1002F000E0FA53465A46C01A914110D311461846A7
:10030000224600F0C7FA2D1A67EB01084F46224635
:100310000120002100F0BEFA17EB00094E41201E1B
:10032000A4F10104DFDC484631462A464346BDE8D5
:10033000F09F40EA01039B0703D009E008C9121FA0
:1003400008C0042AFAD203E011F8013B00F8013B8F
:10035000521EF9D27047D2B201E000F8012B491EBB
:10036000FBD270470022F6E710B513460A46044652
:100370001946FFF7F0FF204610BD00000FB400B58E
:100380008DB010A909900B9000914FF0FF300A90AA
:1003900000200C9005480690054807906A4609A879
:1003A0000F9900F0BDFA0DB05DF814FB3D0900088F
:1003B0005B0900082DE9FF5F1D464FF0FF3BD5E9C3
:1003C000014691465F464FF00008A9697F1C0198DD
:1003D0008847296A824688470028F6D1BAF1FF3F4C
:1003E0000CD024F4C064002E19DD600614D5BAF1D7
:1003F0002B0F09D0BAF12D0F0ED103E0584604B0EF
:10040000BDE8F09F44F48064A9697F1C0198884787
:10041000761E8246002E02DDBAF1300F03D0B9F10C
:10042000000F26D032E0A969761E44F400747F1CC8
:10043000019888478246002E05DDBAF1780F06D074
:10044000BAF1580F03D0B9F1000F10D01EE0B9F186
:10045000000F02D0B9F1100F18D1A969761E24F44B
:1004600000747F1C019888478246102002E0082013
:1004700000E00A20814609E008FB0908A969761E08
:1004800044F400747F1C019888478246002E05DDE5
:100490004946504600F02FFA0028EDDAE969019844
:1004A0008847A00502D46FF00100A8E7E00725D136
:1004B000600613D5600502D5C8F1000000E0404693
:1004C00029680A1D2A600968220501D5087015E00F
:1004D000220701D5088011E008600FE02868011D9F
:1004E00029600068210502D580F8008006E0210718
:1004F00002D5A0F8008001E0C0F8008038467EE711
:100500002DE9FE4F804681EA0300C00F0C460090A3
:1005100021F0004123F00045B8EB0200A94105D2CB
:100520004046214690461C460B46024623F00040BA
:10053000104347D0270DC7F30A00C3F30A510290B6
:10054000401A019040286BDAC3F3130040F4801B7B
:100550000098924620B10023D2EB030A63EB0B0B09
:1005600001985946C0F14002504600F093F9064602
:100570000D4650465946019A00F0ABF910EB0800C1
:100580006141002487EA115284EAE7731A4340D09C
:10059000009A62B3019A012A4FEA075215DC001B48
:1005A00061EB02014FF0004202EA0752CDE900423E
:1005B000001C41F5801132462B4600F0EEF903B0E5
:1005C000BDE8F08F40462146F9E7001B61EB0201D0
:1005D000001C41F5801300185B412018A2F500179C
:1005E00047EB030140EAD570B6196D4111E06D0883
:1005F0004FEA360645EAC0754FEA0752001B61EB29
:100600000201001C41F5801149084FEA3000001931
:10061000514132462B4603B0BDE8F04F00F0AEB971
:100620000098012240000023D0EB020263EBE0734C
:10063000009821464FEAE074B8EB000061EB04013A
:10064000E9E783F000435BE781F0004158E72DE9DB
:10065000FE4F81EA030404F0004421F000410094BD
:100660004FF0000B23F0004350EA01045ED052EA41
:1006700003045BD0C3F30A54C1F30A552C44A4F21B
:10068000F3340194A0FB0254C1F3130141F480112F
:10069000C3F3130343F4801301FB024400FB034E36
:1006A000840A970A44EA815447EA8357A4FB0768FF
:1006B00002958D0A05FB07854FEA932C04FB0C5429
:1006C0002705029D4FEA065847EA1637B5EB08059D
:1006D0006EEB070C870E920E47EA811742EA8312EF
:1006E000A7FB0201B6EB0B0164EB00042B0D43EA00
:1006F0000C335E1844EB1C50DA465146E7FB02010E
:10070000C5F313044FEA0B3343EA14534FEA0432A0
:10071000019C43EA0603A4F10C040294009CCDE979
:1007200000B400F03AF903B0BDE8F08F00200146B4
:10073000F9E72DE9F04D81EA030404F0004B21F0C4
:10074000004514464FF0000A23F0004150EA05022C
:1007500020D054EA01021DD0C5F30A570246C5F362
:100760001303C1F31300C1F30A5640F4801543F498
:100770008013A7EB0608101BD64608F2FD3873EB72
:10078000050002D308F1010801E092185B41B8F1BD
:10079000000F03DA00200146BDE8F08D00204FF481
:1007A0008011064684460EE0171B73EB050705D340
:1007B000121B63EB050306434CEA010C49084FEAA0
:1007C000300092185B4150EA0107EDD152EA030074
:1007D00012D082EA040083EA0501084305D0101B09
:1007E000AB4106D20122002306E000224FF0004375
:1007F00002E06FF0010253101AEB06004CEB0851B7
:1008000010EB0A0041EB0B01BDE8F04D00F0B6B86B
:10081000C1F30A5210B5C1F3130140F2FF3341F4A2
:1008200080119A4201DA002010BD40F233439A420F
:10083000A2F2334203DC524200F03BF810BD90407C
:1008400010BD00F0004230F000400AD0C10D01F5AB
:100850006071C0F3160042EA0151C208400711431B
:10086000704700200146704730B50B460146002016
:100870002022012409E021FA02F59D4205D303FA62
:1008800002F5491B04FA02F52844151EA2F10102E3
:10089000F1DC30BD202A04DB203A00FA02F100200E
:1008A00070479140C2F1200320FA03F319439040AE
:1008B0007047202A04DB203A21FA02F00021704719
:1008C00021FA02F3D040C2F12002914008431946B8
:1008D0007047202A06DBCB17203A41FA02F043EAA0
:1008E000E07306E041FA02F3D040C2F120029140E9
:1008F0000843194670473A2800D2303820F02002C9
:10090000412A01D3A2F13700884201D34FF0FF30D2
:100910007047000002681144137801601846704760
:10092000D1600449516104491162002111611146ED
:1009300000F0CAB815090008BD0A0008426842B1B3
:10094000016811F8013B23B1521EC0E9001218469C
:1009500070470121C160881E704742685AB1C36860
:10096000016843B983688B4205D0491E521CC0E917
:100970000012002070474FF0FF30704710B5141E72
:1009800073F1000408DA401C41F1000192185B4148
:100990001A4301D120F0010010BD2DE9F04D92461F
:1009A0009B4611B1B1FA81F202E0B0FA80F2203236
:1009B0009046FFF76FFF04460F4640EA0A0041EAFF
:1009C0000B0153465A46084313D0114653EA01001F
:1009D00019D0C8F140025046FFF76BFF05460E469E
:1009E000504659464246FFF755FF084305D00120BF
:1009F00004E020463946BDE8F08D0020054346EA74
:100A0000E0762C4337430A986305E40AA0EB08001C
:100A10000022FD0A44EA47540A3002D5002001466C
:100A2000E9E7010510196941DDE908450019694147
:100A3000BDE8F04DA2E7C1F30A52C1F3130140F241
:100A4000FF3341F480119A4202DA002001467047D8
:100A500040F233439A42A2F2334202DC5242FFF7A1
:100A600028BFFFF717BF000030B5041E71F1000466
:100A700004DB4FF00044404264EB0101141E73F1AB
:100A8000000405DB1C464FF00043524263EB0403B5
:100A9000994208BF904230BD064C074D06E0E06821
:100AA00040F0010394E8070098471034AC42F6D3B5
:100AB000FFF78CFBF081000810820008C0B24FF4F1
:100AC000F05100F099B900002DE9F34F8BB04FF0D1
:100AD000000801F10C000C464FF0010B46460DF1E9
:100AE000080A01906269012101989047051E2DD0E6
:100AF000252D2CD0216A8847C0B162690121019857
:100B00009047216A88470028F7D1411E6269019801
:100B1000904700E0761CA1690B988847216A8847B6
:100B20000028F7D1E1690B988847DBE7A1690B98AA
:100B300088470746A84201D1761CD3E7E1690B98A4
:100B400088477F1C02D1B8F1000F6FD047E1002722
:100B500062693D463946019890472A2804D1626966
:100B60000121019890470125DFF8889262690121EF
:100B700001989047A0F130010A290AD24F45E5DCDF
:100B800007EB870100EB4107303FDFD445F010054C
:100B9000ECE7E90601D46FF000476C280AD04C2836
:100BA00014D0682815D06A280DD074281CD07A2853
:100BB0001AD01DE062690121019890476C2802D08B
:100BC00045F0040514E045F002050DE045F0200570
:100BD0000AE06269012101989047682802D045F037
:100BE000080505E045F40065626901210198904718
:100BF000C4E9015765283DD019DC58287AD00CDCAF
:100C0000452837D004DC252826D0412831D131E0D1
:100C100046282FD047282CD12CE05B2877D061289C
:100C200028D063287CD0642823D15AE0D1E06F28F3
:100C300048D008DC66281DD067281BD0692821D041
:100C40006E2816D127E0702845D0732868D0752803
:100C500047D078280DD14DE0A1690B98884705460B
:100C600025283FF469AFE1690B9888476D1C3FF474
:100C70006AAFB4E023466A466FF001000B99AFF308
:100C800000809FE045F040006060A80723464FF0D9
:100C9000000236D43EE0E8077FF447AF2068011D2C
:100CA00021600068290501D506701BE7290701D5D9
:100CB000068017E7A90703D5F117C0E9006111E71E
:100CC00006600FE745F040006060A80723464FF03C
:100CD000080216D41EE040F60E0125EA010060600D
:100CE00016E045F040006060A80723464FF00A0276
:100CF00007D40FE045F040006060A80708D5234600
:100D000010226FF001000B99AFF300805AE007E06A
:100D1000234610226FF001000B99FFF74BFB51E0C7
:100D20004FF000094F464B46632802D05B2807D09E
:100D300041E02079C00601D40120A06001273AE0FB
:100D400062690121019890475E2805D14FF00109A1
:100D50006269494601989047216939B900210A46DC
:100D6000534643F82120491C0829FADBB0B3216916
:100D700069B9C11700EBD16253110AEB830122F06C
:100D80001F02821A01200B68904003430B606269C6
:100D90000121019890475D28E8D1B9F1000F09D0F1
:100DA0000020514651F82020D24341F82020401C19
:100DB0000828F7DB02AB224600976FF001000B9981
:100DC000AFF3008000280CDA401C08D1BBF1000F03
:100DD00005D04FF0FF300DB0BDE8F08FFFE7404683
:100DE000F9E7E90701D108F1010806444FF0000BCB
:100DF00078E60000CCCCCC0C7F2801D9002208E09A
:100E0000064A02EB5002C007127800D1120902F024
:100E10000F0201209040084070470000AE8100089A
:100E200070B58C1810F8015B15F0070301D110F8AC
:100E3000013B2A1106D110F8012B03E010F8016BD9
:100E400001F8016B5B1EF9D12B0705D40023521E5C
:100E50000DD401F8013BFAE710F8013BCB1A921CC4
:100E600003E013F8015B01F8015B521EF9D5A142C2
:100E7000D8D3002070BD000070B586B0012001906D
:100E80000020184D8024029069460094284601F005
:100E9000C3F90820144E00906946304601F0BCF9B1
:100EA000202000906946304601F0B6F96946304688
:100EB000009401F0B1F901228021284601F089FA5D
:100EC00001220821304601F084FA01222021304617
:100ED00001F07FFA01228021304601F07AFA06B053
:100EE00070BD0000000C0240000402402DE9F043F8
:100EF00085B001260027B402DFF894908DE8D00079
:100F00006946484601F088F96501694648460095FA
:100F100001F082F90220DFF87C80009069464046AB
:100F200001F07AF969464046009601F075F91A4ECB
:100F3000CDE900476946304601F06EF90421009181
:100F40006946404601F068F9102000906946404625
:100F500001F062F9A00000906946304601F05CF9AA
:100F600001222146484601F034FA0122022140467E
:100F700001F02FFA01221146404601F02AFA002220
:100F80002946484601F025FA05B0BDE8F083000087
:100F900000000240000C0240000802402DE9F74F1B
:100FA0003A4D92468B464FF000084FF4806442461B
:100FB0002146284601F00DFA012000F0E8FC01224C
:100FC0002146284601F005FA012000F0E0FC214608
:100FD0002F4801F0F9F9034607E021462C4801F0BB
:100FE000F3F90346012000F0D2FC002BF5D1DFF825
:100FF000A49000220221484601F0EBF900243AE0D7
:1010000000273E464FF48051214801F0DDF928B118
:10101000B8F1000F05D14FF0010802E0B8F1000F60
:1010200022D0002500220121484601F0D2F90120FA
:1010300000F0ADFC0421484601F0C6F900EB470082
:1010400087B21021484601F0BFF900EB460086B296
:1010500001221146484601F0BCF9012000F097FC3E
:101060006D1CEDB2102DDDD3009820F814702BF814
:101070001460641CE4B25445C2D303B04846BDE8D2
:10108000F04F0122022101F0A4B90000000002404B
:1010900000080240000C024070B50122094DD40343
:1010A0002146284601F095F9012000F070FC00224D
:1010B0002146284601F08DF9BDE87040012000F07E
:1010C00066BC000000000240704700002DE9F35F9D
:1010D0004FF0000A554654465646DFF8CCB01FE0A4
:1010E0000BEB4600408802F028FA070023D0B869CD
:1010F000B0F8009000200FE000F1010808F0FF00B8
:10110000394602F0B7F9B96901EBD000006854FA2A
:1011100080F084B21FFA88F04845EDD3761CB6B251
:10112000BBF80010B142DBD8E41D4FEAD409BAF194
:10113000000F04D02AE000244FF0250AF4E7DFF87E
:1011400068B00026ABF1080B1CE00BEB46004088B2
:1011500002F0F3F9070023D0B8690024B0F800804A
:101160000CE0641CE0B2394602F084F9B96901EB85
:10117000D000006855FA80F085B2A4B24445F0D39F
:10118000761CB6B2BBF80010B142DED80099ED1D56
:10119000E808088001995046A1F80090BDE8FC9F3E
:1011A00000254FF0240AF1E7DC0800202DE9F04784
:1011B0008A4E05464FF4005A5146304601F004F974
:1011C000874CC0434FF48049618860F3000161801F
:1011D0004946304601F0F8F86188C04360F34101A8
:1011E00061804FF400484146304601F0EDF86188D7
:1011F000C04360F3820161800121304601F0E4F8D0
:101200006188C04360F3C30161800221304601F070
:10121000DBF86188C04360F304116180042130462B
:1012200001F0D2F8C143608861F345106080082165
:10123000304601F0C9F86188C04360F38611694FF8
:1012400061800121384601F0BFF86188C04360F336
:10125000C71161800221384601F0B6F86188C043A9
:1012600060F3082161800421384601F0ADF86188FF
:10127000C04360F3492161800821384601F0A4F899
:101280006188C04360F38A2161801021304601F0FB
:101290009BF8C1436088544F61F3CB2060800421E8
:1012A000384601F091F86188C04360F30C314F4E2D
:1012B00061804146304601F087F86188C04360F3A1
:1012C0004D3161803115384601F07EF86188C043A8
:1012D00060F38E316180B114384601F075F8618891
:1012E000C04360F3CF31C1F34002084662F35F00B0
:1012F000C1F3800240EA8200C1F3C00240EAC200AA
:10130000C1F3001240EA0210C1F3401240EA421059
:10131000C1F3801240EA8210C1F3C01240EAC21049
:10132000C1F3002240EA0220C1F3402240EA4220F9
:10133000C1F3802240EA8220C1F3C02240EAC220E9
:10134000C1F3003240EA0230C1F3403240EA423099
:101350006180C1F3803240EA8234C80BC003044389
:101360002348006801F024FF1D492C80083968805B
:10137000088800EB8000C0F3903201F13200428017
:101380004988A0F12E0201EB8101C1F390318180E7
:10139000118801EB8101C1F39031C180518801EBCB
:1013A0008101C1F3903101814188A9808188E98060
:1013B000C1882981008968814946304601F004F8D6
:1013C000074C5146A41D6080304600F0FDFFA08010
:1013D0006088A881A088E881BDE8F0870008024005
:1013E000C208002000000240000402400010024039
:1013F000100000202DE9F0470188851C408841EA53
:10140000004000F05DFC914CB5F9021004F10C09AC
:101410006180A888A080E888E080288920816B8985
:101420006381A889A9F80200E889A9F80400288A3C
:10143000A9F80600688AA9F80800A88AA9F80A008D
:1014400004F11807E88A7880288BB880688BF880C8
:10145000A88B3881E88B788104F12408288CA8F8BF
:101460000200688CA8F80400A88CA8F80600E88C94
:10147000A8F8080035F8280FA4F14E06A8F80A00CD
:101480003088834204D0012003F04AF8608930801C
:10149000E0884FF0100108B1012000E0002004F0C6
:1014A0002DFE20894FF0110108B1012000E000203D
:1014B00004F024FEB9F80A0071884C46884206D030
:1014C000B4F90210012003F097F860897080E08879
:1014D0004FF0120108B1012000E0002004F00EFEE0
:1014E00020894FF0130108B1012000E0002004F032
:1014F00005FE7889B188884206D0B7F9021001202C
:1015000003F00CF97889B080F8884FF0140108B125
:10151000012000E0002004F0F1FD38894FF01501B2
:1015200008B1012000E0002004F0E8FDB8F80A004E
:10153000F1884446884206D0B4F90210012003F035
:1015400051F96089F080E0884FF0160108B1012060
:1015500000E0002004F0D2FD20894FF0170108B10F
:10156000012000E0002004F0C9FD384CB5F902105C
:1015700030346180A888A080EA88E2802A892281AC
:101580006A896281AA89A281EA89E2812A8A228201
:1015900035F8122F62823289904207D000EE101A7D
:1015A00030810020B8EEC00A04F0DAF82089718991
:1015B000884209D07081B4F9060000EE100A0120BB
:1015C000B8EEC00A04F0CCF8A089B189884209D0ED
:1015D000B081B4F90A0000EE100A0220B8EEC00A89
:1015E00004F0BEF8208AF189884209D0F081B4F96C
:1015F0000E0000EE100A0320B8EEC00A04F0B0F8A6
:10160000608A318A884206D01049308238390222F5
:10161000081FFFF7C3FC0D4C6A88283C4FF480512B
:101620006280A8880A4DA08002B10122284600F0FD
:10163000D0FEA0884FF4006108B1012200E0002232
:101640002846BDE8F04700F0C4BE0000F6080020C0
:101650000010024030B5044600204FF6FF7505E04B
:10166000204600F065F8002803D128342189A942DA
:10167000F6D130BD10B500F0BFFE04F083F901F0E3
:1016800055FE244CA06940F48010A061A06940F48C
:101690000010A061A06940F48000A06100F0FAFC95
:1016A0001D48006801F084FD002261151B4800F010
:1016B00090FE00F077F900F01FFA03F0F7F804F05D
:1016C00073FCFFF713FCFFF7E7FCFFF7D5FB00F017
:1016D000FBF801F0CBFC01F09BFE11491148FFF72C
:1016E000F5FCA06940F01000A061A06940F0200066
:1016F000A061A06940F04000A061A06940F4802092
:10170000A061A06940F40020A06107494FF47A70FD
:10171000088010BD001002401000002000040240AC
:101720009206002090060020A8000020FEE700009E
:1017300030B500B3144A0024116849B10D890389FA
:101740009D4215D90460116841600860106018E07E
:1017500010604460046014E007D90A68C0E9002101
:101760000A6802B1506008600BE04A6832B1114665
:101770000A899A42F0D14FF0010030BD4860C0E9BB
:1017800000144FF0000030BDB400002030B5064D0D
:101790002C6803E02089646800F07AF8002CF9D105
:1017A0000020286030BD0000B4000020014800681F
:1017B00070470000B4000020024900200860024980
:1017C00008807047440600204C090020084900B5F5
:1017D0000020086001F56770FFF73CFF002805D185
:1017E00003485DF804EB001DFFF734BF00BD0000A7
:1017F000B400002010B51A48202300240380448040
:10180000446044F21F02846082811649C0E90414D6
:101810008483046280F8404013480380448044601D
:1018200084608281C0E904148483046280F84040AB
:101830000E480470FFF7CAFF08B1FFF7A7FF0C4876
:1018400004700C4804700C4804800C4804700C4868
:1018500004600C4804600C4804600C48046010BD2F
:10186000981B0020A0860100DC1B0020DC06002065
:1018700041090020420900204A09002043090020B4
:1018800054090020580900205C090020600900204C
:101890000C4B196813E00A8982420FD1D1E900206C
:1018A00002B1506000B1026000220A604A601A680A
:1018B00009891289914200D118607047496800294E
:1018C000E9D17047B40000203EB50A4800900A48AC
:1018D00001900A486D4600240290284604F0C0FB9F
:1018E000C821491E0029FCDC641C2D1D032CF4DBDF
:1018F0003EBD00000F00100005000C000F00190095
:1019000070B5172000F0AFFD1D4A907948B1D08B1B
:10191000002358B1918B814208D3D371107A00B162
:101920001372BDE87040172000F0A8BD918B814272
:1019300001D2491C91830124D471518C21B1108CA6
:101940008842EAD2401C10840E480F4D018D2D892B
:10195000A94208D21472B2F918000028E1DD508BB8
:10196000401C5083DDE7117A0029DAD0137280F829
:101970004040B2F918000028D3DD5383D1E70000BE
:1019800064060020981B0020D0060020704700222B
:1019900004E00021491CD829FCD3521C8242F8D310
:1019A000704700002DE9F04F85B001246603002048
:1019B0000096CDE90104DFF8E4B06946584600F02E
:1019C0002BFCA70369465846009700F025FC4FF40E
:1019D000004969465846CDF8009000F01DFC694664
:1019E0005846009400F018FC4FF00208694658462B
:1019F000CDF8008000F010FC04256946584600959B
:101A000000F00AFC4FF0080A69465846CDF800A0DD
:101A100000F002FC0094224C6946204600F0FCFBDA
:101A200069462046CDF8008000F0F6FB6946204666
:101A3000009500F0F1FB69462046CDF800A000F0CB
:101A4000EBFB102000906946584600F0E5FB154C72
:101A500069462046009500F0DFFB134D6946284695
:101A6000CDF8009000F0D8FB201500906946204684
:101A700000F0D2FBA01400906946204600F0CCFB99
:101A800069462846009700F0C7FB6946284600963D
:101A900000F0C2FB05B0BDE8F08F00000008024076
:101AA00000000240000402400010024038B501214D
:101AB0008DF8001040F6070101EBC0040122214619
:101AC000684601F045FA01222146684601F0BEF958
:101AD0009DF80000C007F6D038BD10B5172000F003
:101AE000C2FC072000F0BFFC062000F0BCFCBDE8F3
:101AF0001040372000F0B7BC2DE9F04F85B0112021
:101B000001900020694C4FF4005502906946009501
:101B1000204600F081FB01222946204600F059FCB6
:101B20006E0069462046009600F076FB01223146A1
:101B3000204600F04EFC4FF4004969462046CDF89F
:101B4000009000F069FB01224946204600F041FC6C
:101B5000DFF85CB14FF4807A69465846CDF800A0B2
:101B600000F05AFB01225146584600F032FC641541
:101B700069465846009400F04FFB01222146584622
:101B800000F027FC670069465846009700F044FBC8
:101B900001223946584600F01CFCA7006946584609
:101BA000009700F039FB01223946584600F011FC3D
:101BB0004FF4805869465846CDF8008000F02CFB61
:101BC00001224146584600F004FC694658460095FB
:101BD00000F022FB01222946584600F0FAFB694634
:101BE0005846009600F018FB01223146584600F096
:101BF000F0FB69465846CDF8009000F00DFB01223D
:101C00004946584600F0E5FB40202A4D00906946C1
:101C1000284600F001FB01224021284600F0D9FBB4
:101C2000802000906946284600F0F6FA01228021C3
:101C3000284600F0CEFB69462846CDF800A000F00B
:101C4000EBFA01225146284600F0C3FB69462846BC
:101C5000009400F0E1FA01222146284600F0B9FB89
:101C6000154D69462846009400F0D6FA0122214617
:101C7000284600F0AEFB0220104C03906946CDF8D8
:101C80000080204600F0C8FA00224146204600F0BD
:101C9000A0FB69462046009700F0BEFA00223946B4
:101CA000204600F096FB05B0BDE8F08F000402402E
:101CB000000C0240000802400000024000100240F8
:101CC0002DE9F04F85B0C2074FF400514FF000549A
:101CD00008D0264682074FF4804A4FF0804B03D449
:101CE000574602E00E46F5E75F46420702D44FF43E
:101CF000004C01E04FF0004C020702D44FF4807515
:101D000001E04FF08075C3064FF400724FF0007889
:101D100001D4134600E043469946830602D44FF4AB
:101D2000806301E04FF080639E46430602D44FF487
:101D3000006301E04FF000630493030602D44FF404
:101D4000805301E04FF080530393C30500D5214633
:101D50000291810501D4514600E0594601914105A7
:101D600002D44FF4004101E04FF000410091010521
:101D700001D4402101E04FF480018B46C10401D41D
:101D8000802101E04FF400018A46810402D44FF41F
:101D9000807301E04FF08073410401D4144600E0E9
:101DA0004446010400D542462649D1F8008048EA5D
:101DB0000608C1F800800E683E430E600E6846EAD1
:101DC0000C060E6020490E682E430E600D6845EA31
:101DD00009050D600D6845EA0E050D600D68049E4D
:101DE00035430D600D68039E35430D600D68029EFE
:101DF00035430D600D68019E35430D600D68009EF2
:101E000035430D6011490D6845EA0B050D600D68FD
:101E100045EA0A050D600D681D430D600B682343FC
:101E20000B600B498B6913438B610A4A6FEA1040C0
:101E300081B210680840106005B0BDE8F04F01F0B5
:101E4000B7B9000018040240180C024018080240FC
:101E500000000240100000200948406818B90949F4
:101E60004888401C48800848007830B10749B1F9DB
:101E70000000002801DD401E0880FFF741BD000082
:101E8000981B00203C0600207106002076060020EA
:101E900070B5012205211F4800F0D8FF1D4802221D
:101EA0000621223000F0D2FF1A4C40F6FF710E3CA2
:101EB00094F8300001EB8020208604F0B5F800256E
:101EC00004E02846FFF7F2FD6D1CEDB2A07B8542D1
:101ED000F7D301F061FA0025257365732571A570AC
:101EE000E57065716586A583E58325846584A571A4
:101EF000E57225852587E585A5850120E07300210C
:101F000003F00EFC6585657200F006F8BDE87040D0
:101F1000FFF752BC7206002030B50021134A02239D
:101F20000846118051809180D38002EB8004401CD0
:101F3000A16010F0FF00F8D00C4A10320020118090
:101F400051809180D38002EB8003401C996010F097
:101F5000FF00F8D0064D002405EBC40002F01EFD82
:101F6000641C14F0FF04F7D030BD000010190020ED
:101F7000A606002010B5124C2068C0071FD006200E
:101F800000F071FA03F0CCFC01202060062000F084
:101F900075FA20210B4800F017FA30B9172000F02D
:101FA00062FA02F019FA202020600221064800F0AF
:101FB0000BFA002803D103F033FC0220206010BD8F
:101FC000143C0140000802400004024010B5124CCD
:101FD000206880071FD5072000F045FA03F020FC99
:101FE00002202060072000F049FA20210B4800F071
:101FF000EBF930B9172000F036FA02F0EDF92020A5
:1020000020600121064800F0DFF9002803D103F029
:1020100087FC0120206010BD143C014000080240F4
:102020000004024070B5114C206880061DD51720B1
:1020300000F019FA02F0D0F920202060172000F0FB
:102040001DFA0B4D0221284600F0BEF918B903F025
:10205000E7FB022020600121284600F0B5F90028A6
:1020600003D103F05DFC0120206070BD143C0140F1
:102070000004024010B5172000F000FA072000F01D
:10208000F2F9062000F0EFF9BDE81040372000F02B
:10209000F5B900002DE9F04186B001A90120032522
:1020A000002481E831002020DFF874800090694628
:1020B000404600F0B1F8802000906946404600F0AC
:1020C000ABF8102000906946404600F0A5F8154F87
:1020D0004FF4007669463846009600F09DF840209F
:1020E000CDE9000469464046CDE9024500F094F888
:1020F00000222021404600F06CF9012210214046C8
:1021000000F067F901228021404600F062F90122C7
:102110003146384600F05DF906B0BDE8F0810000B8
:1021200000000240000402400F4A10B592F901106D
:10213000491CCB1701EB136323F0FF03C91A92F973
:102140000230994205D109A003F0CAFA4FF0FF30DE
:1021500010BD0C4992F90130C85492F90100401C9D
:102160005070002010BD0000A40000204649464FDA
:1021700020627566666572206F766572666C6F7731
:102180000A000000871700202DE9F0410446876D02
:1021900000F024F9054694F835000026022806D000
:1021A0008020606584F834600120BDE8F0812068FB
:1021B000016821F0160101602068416921F0800169
:1021C0004161206C08B9A06C20B12068016821F041
:1021D000080101602068016821F0010101600BE045
:1021E00000F0FCF8401B052806D92020606504F8A3
:1021F000346F03206070D8E720680068C007EFD113
:1022000094F85C103F208840B86004F8346F0120D7
:1022100060700020C9E700002DE9F84FDFF88091D9
:10222000002209F1040A0AF1040B4FF00F080BF128
:10223000040E01260B6896403340B34271D14C68BE
:10224000022C01D0122C11D1D40800EB84073D6A76
:102250005407E40E08FA04FC25EA0C05D1F810C076
:102260000CFA04FC4CEA050CC7F820C007685400BF
:10227000032591F804C0A5400CF0030CAF430CFA01
:1022800004FC4CEA070CC0F800C04F68012F05D0D1
:10229000022F03D0112F01D0122F11D18768D1F84E
:1022A0000CC0AF430CFA04FC4CEA070CC0F808C0A1
:1022B0004768B7430E79C6F3001696403E43466022
:1022C000C668AE438D68A5403543C5604C68E400E0
:1022D00060D5344C256845F480452560246822F09B
:1022E000030504F4804400942F4C2E19D6F8087886
:1022F0009407250F08FA05F4A7432C4CA04201D1FE
:1023000000241FE02A4CA04201D101241AE0294CEC
:10231000A04201D1022415E0274CA04202D103249F
:1023200010E037E0254CA04201D104240AE0244CFF
:10233000A04201D1052405E0224CA04201D106248F
:1023400000E00724AC403C43C6F80848D9F80040F8
:102350004D464E689C43F60300D51C432C60DAF8CA
:10236000004055464E689C43B60300D51C432C6084
:10237000DBF800405D464E689C43F60200D51C43E6
:102380002C60DEF8004075464E689C43B60200D5CE
:102390001C432C60521C102AFFF44BAFBDE8F88F91
:1023A000003C01404438024000300140000002403F
:1023B0000004024000080240000C024000100240ED
:1023C00000140240001802400069084000D00120BB
:1023D00070470AB1816170470904FBE701488068D2
:1023E0007047000074090020024881680278114497
:1023F0008160704774090020094810B5016841F4F4
:1024000000710160016841F480710160032000F0F7
:1024100061F80F2000F006F800F024F8002010BD4D
:10242000003C024070B50D4D04464FF47A71287897
:10243000B1FBF0F00A490968B1FBF0F000F0CAFC0A
:1024400048B9102C07D200222146501E00F022F875
:1024500000206C6070BD012070BD00007409002078
:1024600080090020704700F01F02012191404009BF
:10247000800000F1E020C0F88011704700F01F02DA
:10248000012191404009800000F1E020C0F80011D6
:1024900070470000F0B40E4B1B68C3F30223C3F176
:1024A0000704042C00D904241D1D072D01D200238C
:1024B00000E0DB1E012606FA04F56D1E0D409D406E
:1024C0009E40761E164045EA0601F0BC00F0C2BFF1
:1024D0000CED00E0064A00F0070110684FF6FF031C
:1024E000184040EA0120034908431060704700008B
:1024F0000CED00E00000FA052DE9F84317480168EB
:1025000041F0805101600068DFF8548000F0805095
:1025100001270090C8F84070FFF760FF04464FF4B1
:102520007A75104E04E0FFF759FF001BA8420DD842
:102530007068C003F7D5C8F84470FFF74FFF044632
:1025400007E0FFF74BFF001BA84202D90320BDE8BC
:10255000F88370688003F4D50020F8E74038024023
:1025600000000E4200700040F8B504460025FFF759
:1025700035FF064694F84100800731D5002084F8E5
:1025800040002068016849070BD5016821F004016B
:102590000160E06BFFF7F8FD18B1606C40F00400DB
:1025A00060642068016841F002010160A06C009045
:1025B000334601220221204602F0BDFA05000FD168
:1025C00021680220C860A06C0090334600222021C0
:1025D000204602F0B0FA050002D1012084F8410043
:1025E0002846F8BD2DE9F84F17468B460446FFF7FD
:1025F000F5FE824694F8400001280ED0012684F8AA
:10260000406094F841004FF00008012807D00225EF
:1026100084F840802846BDE8F88F0220FBE7C4F824
:1026200044804FF0020984F8419053460022202153
:102630002046009702F07FFA0500E9D100225946B2
:10264000204602F0BBF9DBF8240058B953460122BA
:1026500002212046009702F06EFA0500D8D12168C9
:10266000C1F80C9084F84160D2E710B5040015D091
:1026700094F84000012813D0012084F8400020681D
:10268000016821F001010160204600F067F8002098
:10269000606484F8410084F8400010BD012010BD42
:1026A000022010BDF8B50446FFF798FE07465CB15E
:1026B00094F84000012809D0012684F8406094F87D
:1026C0004100002520B10BE00120F8BD0220F8BD3B
:1026D00084F84050204600F042F841F28830A0646F
:1026E00020680168A2686FF0FF0321F4F85103EB42
:1026F000022211430160A06C00903B460022202181
:10270000204602F018FA08BBE268E16923790A431F
:10271000216A41EA03610A4321680B680D4F3B407F
:102720001A430A60D4E905210A4321684B680A4F1D
:102730003B40278A43EA07431A434A6021680A68F4
:1027400042F001020A60656484F8416084F84050F8
:10275000F8BD00002FFFFF00FEF8E0FF7047704754
:102760002DE9F84F16460F460446FFF737FE82461E
:102770002068816994F8402000F12005012A0ED0DC
:102780004FF0010884F8408094F841204FF0000990
:10279000012A06D0022084F84090BDE8F88F02207C
:1027A000FBE7C4F84490AFB3222284F841200269C9
:1027B000521CA2630269521C62632763426922F0C1
:1027C000406242F080624261206881610CE0062133
:1027D000204602F0B0F9D0B92A78206B411C216361
:1027E0000270A06B401EA063A06B53464FF0010225
:1027F00000960028EBD14FF00201204602F09BF931
:1028000028B921680220C8602046FFF7ADFE84F891
:102810004180C0E7FFE7606C40F008006064012081
:10282000B9E72DE9F84F16460F460446FFF7D6FDE7
:102830008246206894F8401000F1200501290ED04E
:102840004FF0010884F8408094F841104FF00009DF
:10285000012906D0022084F84090BDE8F88F0220BC
:10286000FBE7C4F844908FB3122184F8411001694A
:10287000491CE1620169491CA1626762416921F05A
:10288000406141610CE00421204602F054F9D0B9C6
:10289000606A411C616200782870E06A401EE06254
:1028A000E06A53464FF0010200960028EBD14FF04A
:1028B0000201204602F03FF928B921680220C860D1
:1028C0002046FFF751FE84F84180C4E7FFE7606CC3
:1028D00040F0080060640120BDE700002DE9F047EA
:1028E0000D46040065D0DFF81491D9F80000EFB26E
:1028F00000F00F00A84207D289F80070D9F8000054
:1029000000F00F00A84254D120683D4E810712D537
:10291000400703D5306840F4E0503060207800076D
:1029200003D5306840F4604030603068A16820F022
:10293000F000084330602078C0072DD0304960682F
:102940000839012812D0022813D0032811D00968B1
:10295000890700292DDA316821F003010143316034
:10296000FFF73CFD804641F2883A0EE00968890392
:10297000EFE709688901ECE7FFF730FDA0EB0801FC
:10298000514502D90320BDE8F0873068616800F046
:102990000C00B0EB810FEFD1D9F80010484601F0E0
:1029A0000F01A94207D90770006800F00F00A84284
:1029B00001D00120E7E72078400705D53068E168BD
:1029C00020F4E050084330602078000706D53068D6
:1029D000216920F4604040EAC100306000F016F840
:1029E0003168084AC1F30311515CC84006490860C8
:1029F0000F20FFF717FD0020C5E70000003C024054
:102A0000083802407D80000880090020224810B567
:102A1000006810F00C01214815D0214B042911D079
:102A20001D4C241F08290FD00C290CD1216801F05E
:102A30003F022168490221D52068C0F38810A0FB1D
:102A4000030120E0184610BD216801F03F02216813
:102A5000490205D52068C0F38810A0FB030104E0FB
:102A60002168C1F38811A1FB00010023FDF730FCB0
:102A70002168C1F30141491C49000AE02168C1F302
:102A80008811A1FB00010023FDF722FC2168C1F39E
:102A90000271B0FBF1F010BD083802400024F400D0
:102AA00040787D012DE9F84F04460078C44EC007F8
:102AB000A6F104054ED0301D0168C1F38101012942
:102AC0000FD00168C1F38101022902D131684902A6
:102AD00007D40068C0F38100032809D130684002A0
:102AE00006D52868800335D5606800286FD031E0AE
:102AF0006068B0F5803F10D0B0F5A02F286810D0E6
:102B000020F480302860286820F4802028606068E5
:102B1000A0B1FFF763FC07460CE0286840F4803062
:102B2000F4E740F480202860F7E7FFF757FCC01B6C
:102B3000642875D828688003F7D50BE0FFF74EFCB2
:102B4000074604E0FFF74AFCC01B6428F1D8286858
:102B50008003F7D42078DFF86CA280074FF0000BD9
:102B600044D59748001D016811F00C0F0FD0016883
:102B7000C1F38101022902D13168490207D50068F9
:102B8000C0F38100032809D13068400206D42868C8
:102B9000800714D5E068012819D110E0E068B8B1C9
:102BA0000120CAF80000FFF719FC074604E0FFF710
:102BB00015FCC01B0228BCD828688007F7D52868F8
:102BC000216920F0F80040EAC10028600EE0F4E03E
:102BD000CAF800B0FFF702FC074604E0FFF7FEFB6F
:102BE000C01B02281CD828688007F7D4207800076B
:102BF00026D5DFF8CC817448616908F1700881B18D
:102C000001210160FFF7EAFB074604E0FFF7E6FB5E
:102C1000C01B022804D8D8F800008007F6D50FE0C2
:102C200088E0C0F800B0FFF7D9FB074604E0FFF7E3
:102C3000D5FBC01B02287DD8D8F800008007F6D449
:102C40002078400769D55E484FF000093C300068A5
:102C5000C0000BD45A483C30016841F080510160FB
:102C600000684FF0010900F080500090574801685B
:102C7000C90511D40168804641F480710160FFF7F5
:102C8000ADFB074604E0FFF7A9FBC01B022851D8A3
:102C9000D8F80000C005F6D5494FA0686C37012868
:102CA0000FD00528386810D020F00100386038684F
:102CB00020F004003860A068B8B1FFF78FFB8046B1
:102CC0000FE0386840F00100F4E740F0040038609D
:102CD000F7E7FFF783FBA0EB080141F28830814260
:102CE00063D838688007F4D50EE0FFF777FB80469D
:102CF00007E0FFF773FBA0EB080141F28830814247
:102D000053D838688007F4D4B9F1000F05D02C48A7
:102D10003C30016821F080510160A069B0B32849BE
:102D2000091D0968C1F38101022946D00228CAF8A9
:102D300060B000E039E003D0FFF750FB044637E015
:102D4000FFF74CFB074604E0FFF748FBC01B0228D7
:102D50002BD828688001F7D4F4E907010843E1681B
:102D60001B4A490802EB0141A26841EA821108436B
:102D7000217C40EA0160217D40EA01703060012041
:102D8000CAF86000FFF72AFB044605E013E0FFF7EE
:102D900025FB001B022808D828688001F7D50AE027
:102DA000FFF71CFB001B022802D90320BDE8F88FA7
:102DB00028688001F4D40020F8E70120F6E700003D
:102DC0000438024000004742800E47420070004035
:102DD0000000FFFF10B5401EB0F1807F01D301203D
:102DE00010BD4FF0E02460610F21601700F032FB4E
:102DF0000020A06107202061002010BD10B5040054
:102E000003D094F8390010B107E0012010BD002074
:102E100084F83800204600F00CF8022084F83900CD
:102E2000211D206803F050F8012084F839000020AB
:102E300010BD70470168CA6842F00102CA600068AC
:102E4000016841F001010160002070472DE9F04167
:102E500015460E4607464FF4805822E0464501D3FA
:102E60002C4610E0042D01D9042400E02C46F00784
:102E700003D1B00705D5E00701D0012403E0022407
:102E800001E0032CF9D0FEF728FE224631463846F1
:102E900002F06AF9FFF7EEF8281B85B230192744D3
:102EA00086B2002DDAD120211048FFF78DFA104CA0
:102EB00030B91720FFF7D7FA01F08EFA20202060F2
:102EC0000C4D02212846FFF77FFA18B902F0A8FC42
:102ED0000220206001212846FFF776FA002803D15E
:102EE00002F01EFD01202060BDE8F08100080240D4
:102EF000143C0140000402402DE9F04115460E4605
:102F000007464FF480581EE0464501D32C4610E09A
:102F1000042D01D9042400E02C46F00703D1B007AA
:102F200005D5E00701D0012403E0022401E0032CD1
:102F3000F9D022463146384602F016F9281B85B2F0
:102F40003019274486B2002DDED1BDE8F0810000A3
:102F50002DE9F04115460E4607464FF4805822E011
:102F6000464501D32C4610E0042D01D9042400E08D
:102F70002C46F00703D1B00705D5E00701D00124A6
:102F800003E0022401E0032CF9D0FEF7A6FD22465F
:102F90003146384602F08AFBFFF76CF8281B85B2F1
:102FA0003019274486B2002DDAD120211048FFF7CE
:102FB0000BFA104C30B91720FFF755FA01F00CFA54
:102FC000202020600C4D02212846FFF7FDF918B99A
:102FD00002F026FC0220206001212846FFF7F4F9C8
:102FE000002803D102F09CFC01202060BDE8F081A4
:102FF00000080240143C0140000402402DE9F04169
:1030000015460E4607464FF480581EE0464501D34C
:103010002C4610E0042D01D9042400E02C46F007D2
:1030200003D1B00705D5E00701D0012403E0022455
:1030300001E0032CF9D022463146384602F036FB37
:10304000281B85B23019274486B2002DDED1BDE899
:10305000F081000010B502224FF408710248FFF71A
:103060004BFF0148008810BDAE000020F8B502F00B
:1030700007F8002593244FF40176ADF800400222B2
:1030800031466846FFF764FFADF800500222314632
:103090006846FFF7DBFEBDF800009328EDD140F253
:1030A0000111542002F0BEF901215C2002F0BAF9AE
:1030B000582002F071F800F0EDF800F011F9072047
:1030C000FFF7DCF90620FFF7D9F902F0D5FE02F090
:1030D000F5FE00F0B9F8002000F006F81720FFF721
:1030E000CDF90120F8BD000038B504464FF4017554
:1030F000022229466846FFF7A9FEBDF800202240BB
:10310000ADF80020FEF7E9FC022229466846FFF7E9
:103110001FFF022229460348FFF798FEFEF7AAFF89
:1031200038BD0000B000002070B5194800780028B4
:1031300023D11848007800281FD0174B18480021C9
:103140009D8B0268154C1748012D17D04578012D2D
:1031500013D1526A456843F60956521B124D6A4311
:103160004FF47A7592FBF5F54288724305EB8212B3
:103170005A60626041804160417070BD59609983BE
:103180006160A183418001214170516A416070BD3D
:103190006A0600206D060020981B0020DC1B002022
:1031A0004C1600203C06002040420F00FEE70000C5
:1031B0002DE9F041234E074600252A4610213046CE
:1031C000FFF707F90024002220213046FFF701F91C
:1031D00017F4000F01D0012200E0002280213046C8
:1031E000FFF7F7F87F00012220213046FFF7F1F8C2
:1031F000641C182CE7D3012210213046FFF7E9F8B0
:1032000000240127002220213046FFF7E2F8402168
:103210003046FFF7D9F820B9C4F10F0107FA01F0E1
:103220000543012220213046FFF7D3F8641C102CFF
:10323000E8D3002220213046FFF7CBF8A8B2BDE842
:10324000F0810000000002400F4800B5026887B01E
:10325000002142F004020260006800F004000590C2
:10326000202000900948CDE9010169460848FEF791
:10327000D3FF012207211720FFF70CF91720FFF7D2
:10328000F2F807B000BD0000303802400000211005
:10329000000802400F4800B5026887B0002142F0E4
:1032A00002020260006800F0020005900220009017
:1032B0000948CDE9010169460848FEF7ADFF07213D
:1032C00001220846FFF7E6F80720FFF7CCF807B021
:1032D00000BD000030380240000021100004024010
:1032E0000F4800B5026887B0002142F00202026078
:1032F000006800F002000590012000900948CDE927
:10330000010169460848FEF787FF012203210620D4
:10331000FFF7C0F80620FFF7A6F807B000BD0000D1
:1033200030380240000021100004024010B586B081
:1033300001200190002002900420164C0090694664
:103340002046FEF769FFA06940F00400A06110204C
:10335000009069462046FEF75FFFA06940F010002C
:10336000A0612020009069462046FEF755FFA06925
:1033700040F02000A0610820009069462046FEF73A
:103380004BFF4020009069462046FEF745FF06B0FF
:1033900010BD000000100240F8B51A4D2220002494
:1033A00068814FF4807028810001A881E881164867
:1033B0000A2140F60F0604804480818034380122BF
:1033C00004804480818011482C6131460470AC61D6
:1033D0006C61EC61EC708DF800406846FFF736FDDB
:1033E0009DF80000012220F002008DF80000314617
:1033F0006846FFF7ADFDAC706C702C70AC712C7131
:103400006C71F8BDB0060020641B00204806002047
:1034100010B5FEF73DFDFEF7EDF90449002001224D
:103420004880486048700A7010BD00003C060020CB
:1034300001F0A6FB00220A231146104600F0FAFB19
:10344000F6E7FEE7002264231146104600F0F2FB87
:10345000F8E770470907090E002806DA00F00F00A8
:1034600000F1E02080F8141D704700F1E02080F8A2
:1034700000147047F0B58A8905004FF00000C2F3D0
:10348000032700D01020072F03D001234FF4187C0E
:1034900031E00020F0BD082F13D00A6903EB43048C
:1034A00002EB440422881F2A28D00DDCA2F1030677
:1034B000092E19D2DFE806F022311822313118180E
:1034C00022000C69A41DEDE7624517D006DC202A16
:1034D00023D02E2A12D02F2A06D11EE0A2F5007684
:1034E000623E1AD0012E18D0AB4202D2628810443C
:1034F00080B25B1C9BB2AB42CDD9F0BD4FF6F076EB
:103500000F303040AB42F4D20B2A01D0624502D1D9
:103510006288104480B21030EAE74FF6E0761F3040
:103520003040AB42E5D2A2F50076623EDED0A2F595
:103530000076633EDAD02030DAE710B50446FEF7B5
:1035400035F903E00189A14202D040680028F9D191
:1035500010BD70472DE9F041054616480E46144649
:10356000807808B1122009E02878012809D00228C3
:1035700007D0032805D0042803D001201070BDE82F
:10358000F081FCF753FE0746304600F049FE0F2855
:1035900004D93846FCF74EFE0B2008E0314605F111
:1035A0000F0000F02FFE3846FCF744FE002020708C
:1035B000E5E700008809002070B586B000F0B0F89B
:1035C000484B00245C639C70DC701C72DC71DC6016
:1035D0001C629C615C615C709C7103F11C01204663
:1035E000401CC0B201F8014B0428F9D31C715C7176
:1035F000DC624FF4FD613C485C6200F089FD3A48B2
:103600008021803800F084FD3748002200F15C0101
:103610003F25416180F84C5080F84D40521CD2B299
:103620005C305C31152AF4D3446180F84C5080F84A
:103630004D402D481C6398624FF4A071A0F5B8600E
:1036400000F066FD2948002200F1200100F8044B3B
:10365000521C40F80B1B92B200F8015B203100F8BD
:10366000104B092AF2D304704460C57304741F48D8
:10367000186100F029FD00F055FD00F075FD802671
:103680001B48CDE901064FF6FF70174A009003254D
:103690001F23843A00211748CDE9034500F054F96F
:1036A00005AA15A11F2000F09FF91748CDE90106D2
:1036B0004FF6FE700E4A00901E23121F0021134881
:1036C000CDE9034500F040F905AA11A11E2000F044
:1036D0008BF900F051FB00F029F806B0BDE870400E
:1036E000FFF737BF88090020E0210020201C0020C0
:1036F000601F00201543000875432F4F532D494983
:103700002049646C65000000601D00203143000802
:1037100075432F4F532D49492053746174000000A5
:10372000014900200880704784090020704700008C
:1037300070B5144CE079012822D1FCF777FD0546DD
:10374000A07820B1401E10F0FF00A07013D1E078E7
:1037500088B900F047FD6079217988420BD00A4989
:1037600051F82010E162886B401C8863E068401CBF
:10377000E060FCF777FD2846BDE87040FCF75ABDD5
:1037800070BD0000880900206021002070B505464A
:103790000D48007808B1002070BDFCF747FD0B49CB
:1037A0000C680CB162680A60FCF744FD54B1032058
:1037B0002070258100203F216060E1732074204645
:1037C00000F076FC204670BD8A0900209809002090
:1037D0002DE9F0470546007889461446032801D0B4
:1037E000012008E02648007808B1022003E02548BF
:1037F000007818B10D201070BDE8F087FCF716FDB9
:1038000006462889002730B1401E28813046FCF743
:1038100011FD2770F0E7DFF87080D8F8000010F88D
:10382000301F41F001010170477020F8029C2846CA
:1038300000F01AFC3046FCF7FDFC00F0AFFCFCF792
:10384000F5FC0646D8F8000090F8311031B1022995
:1038500006D0294600F0E4FB0A2002E0277001E0D0
:103860000E202070D8F8000080F8307080F8317099
:1038700040F81C7F47603046BDE8F047FCF7DABCF3
:103880008A0900208B090020AC09002070B504468D
:103890000078032801D0012070BDFCF7C7FC054665
:1038A000A07A58B1002301221946204600F07EFB81
:1038B0002846FCF7BFFC00F071FC09E020894FF6B8
:1038C000FF71884206D2401C20812846FCF7B2FCDA
:1038D000002070BD2846FCF7ADFC322070BD000012
:1038E00010B5094CE07900280CD100F07BFC607920
:1038F0000649207151F82000E0626062BDE8104086
:10390000FCF79BBC10BD000088090020602100204E
:1039100010B5022000F060F9FCF788FC084C00218B
:103920002162FCF787FC642000F056F9FCF77EFC6E
:10393000216A616101216170BDE81040FCF77ABC29
:1039400088090020704700002DE9FF4F83B01C4616
:10395000DDE91386DDE9119792468B46FCF766FC9C
:103960001D49097829B1FCF765FC3C2007B0BDE88A
:10397000F08F1A4D55F8241019B1FCF75BFC282084
:10398000F4E7012145F82410FCF754FC324639468F
:10399000484600F015FD334652465946039800F05C
:1039A00097F80097CDE9018601464A462046109BCC
:1039B00000F040FC060008D0FCF738FC002145F878
:1039C0002410FCF737FC3046D0E705480078012882
:1039D000F9D100F0E3FBF6E78A090020602100201E
:1039E0008F090020704770472DE9F04105461948BE
:1039F00088461446007818B112201070BDE8F08196
:103A0000FCF714FC0646FF2D03D11348006890F81C
:103A100032501248432750F825505DB1012D09D08E
:103A2000404600F0FDFB0F2809D93046FCF702FCA8
:103A300041200DE03046FCF7FDFB2770DEE74146F4
:103A400005F14C0000F0DEFB3046FCF7F3FB0020F4
:103A50002070D3E78A090020AC09002060210020F3
:103A6000704700002DE9F0410446002008600E4632
:103A70004860FCF7DBFBFF2C03D11349096891F880
:103A80003240124951F8241051B1012908D00A7C62
:103A9000D2070AD0D1E902570024FCF7CBFB09E09A
:103AA000FCF7C8FB4320BDE8F081FCF7C3FB4520D1
:103AB000F9E7641C01CD0028FBD0A0003060381B62
:103AC000800070600020EEE7AC090020602100203B
:103AD0004FF080731360131F1860A2F108006FF09D
:103AE00001030360001F4FF012330360001F4FF00B
:103AF00003330360001F4FF002330360001F5B10AD
:103B00000360001F0160001F4FF011310160001FB2
:103B100019010160001F4FF009310160001FD90039
:103B20000160001F4FF007310160001F4FF00631A8
:103B30000160001F4FF0053101609900001F016016
:103B40007047000070B50446FCF770FB01461D4845
:103B5000FF2C006805D090F83200A04204D1012566
:103B600003E090F83240FAE70025174850F82400A7
:103B700058B101280ED090F83420144C90F83560DC
:103B8000A35CB343A3540AD00FE00846FCF752FBF2
:103B9000482070BD0846FCF74DFB432070BD0C4A21
:103BA00090F836401378A343137010F8302F42F08A
:103BB000080202700846FCF73DFB0DB100F0EEFA7A
:103BC000002070BDAC09002060210020A409002065
:103BD0008E0900207047000070B504461148007837
:103BE00000281DD1002C1BD0FCF720FB03460E48FB
:103BF0000E4D016891F8342091F83560A85CB0430F
:103C0000A85405D10A4891F836500278AA430270A8
:103C1000CC851846FCF70EFBBDE8704000F0BEBA3C
:103C200070BD00008A090020AC090020A409002012
:103C30008E09002070B5164C24780CB1552070BD4B
:103C40004FF47A746343B3FBF4F34FF4616410FBF5
:103C500004F0C1EB011100EB8100104400EB4001C6
:103C6000C1EBC01003EBC000040C80B2FFF7B4FF3F
:103C70004FF4004507E02846FFF7AEFF2846FFF760
:103C8000ABFF641EA4B2002CF5D1002070BD000073
:103C90008A09002010B50446FCF7C8FA02490C60F6
:103CA000BDE81040FCF7C6BABC0900202DE9F04180
:103CB00000F04EF8FCF7BAFA244D696B491C6963B1
:103CC000FCF7B8FAE87901283DD1687A0126002787
:103CD00020B1012837D0022802D06F722C6B2EE061
:103CE0006E72FBE7FCF7A2FAE18D29B3491E0904C5
:103CF000090CE18520D194F8301011F0370F06D06F
:103D000021F0370184F8301084F8316001E084F844
:103D1000317094F8301009070ED494F83610AA794F
:103D20000A4B1143A97194F834101C3394F835C030
:103D30005A5C42EA0C025A546469FCF77BFA94F824
:103D400032001F28CED1BDE8F08100008809002094
:103D500005490888401C80B20880642803D30020ED
:103D6000088000F003B8704784090020014800680B
:103D7000FFF78CBDD809002070B588B04FF45071A2
:103D80002D4800F0C5F940212C4800F0C1F92A481F
:103D90000022642300F1340114463F2500F8313B32
:103DA000521C00F8254992B240F8141B343100F837
:103DB000015B0F2A00F8134BF0D3037080F83140F9
:103DC000C46080F8205080F821401D481E490460DE
:103DD0001C480480102008801C49174808600120F6
:103DE000FFF7D4FC1A4D28600020FFF7CFFC194ED6
:103DF00005AA19A130602868FFF7ACFB05AA19A134
:103E00003068FFF7A7FB802102910320CDE9034032
:103E1000174A4FF6FD70CDE900021D2302F5FE7230
:103E200000211448FFF790FD06AA13A11D20FFF7FB
:103E3000DBFD08B070BD0000682B0020A83000201A
:103E4000D0090020CE090020CC090020DC09002088
:103E5000D4090020D80900204F532D546D724C6FA7
:103E6000636B00004F532D546D725369670000005F
:103E7000A82E0020E93E000875432F4F532D4949D5
:103E800020546D7200000000032280F831200F4A98
:103E90000129126814D0816991B111444161017DF9
:103EA0000B4A01F0070102EBC10100230A68086018
:103EB00042B1C26010618A88521C8A8003617047D7
:103EC000C169EAE70122C360F7E70000D0090020DA
:103ED000A830002008B503486A4600210068FFF7B3
:103EE00077FC08BDD409002008B5DFF86880DFF84A
:103EF00068901A4E6A460021D8F80000FFF768FC67
:103F0000FFF7E8FF3068401C306000F00700022730
:103F100059F8304013E060693168E56888420DD196
:103F2000626812B12046A1689047204600F018F858
:103F300094F83000022807D084F831702C46002C09
:103F4000E9D100F02DF8D5E701212046FFF79CFFCD
:103F5000F4E70000D8090020A8300020D009002094
:103F600010B5017D0D4A01F0070102EBC1010024EB
:103F70000B68C268834203D10A602AB1146103E06E
:103F80000369DA6002B11361012280F83120C46054
:103F900004618888401E888010BD0000A830002081
:103FA00001480068FFF772BCD4090020F0B50F4645
:103FB0000546807A1749085C2C18E47A095D01EB04
:103FC000C001CEB2144951F826400021E185676254
:103FD00094F83010914384F8301084F83130090798
:103FE0000BD40E4994F836208B791A438A711C3110
:103FF00094F835300A5C1A430A542946204600F0EA
:104000000FF8216A19B1204600F01AF8E561304630
:10401000F0BD00008D80000860210020880900208C
:1040200010B590F8342090F835408B18DA7AA24316
:10403000DA7204D18A7A90F8360082438A7210BD0F
:1040400070B510F8345F84784678086809E0431941
:10405000DA7AB243DA7202D1827AA243827251F8DA
:10406000040F0028F3D170BD30B5104C00F10B02E5
:10407000616A41F81C0F0B7E497E9D5C0D439D5487
:10408000616A827A91F836301A43827291F834006C
:1040900004F11C0391F835501A5CAA431A5404D158
:1040A00091F83610A0798843A07130BD88090020AE
:1040B0000022827211460B30491CC9B200F8012B54
:1040C0000429F9D37047000010B58C210E4800F088
:1040D0001FF80D48002200F11C0113463F2400F890
:1040E000043B521C40F8061B92B200F8014B1C31F5
:1040F00000F8113B042AF2D3037043608472034931
:10410000C3720148086010BDC8290020C009002002
:10411000002203E0491E00F8012B89B20029F9D1E1
:104120007047000070B5B4210D48FFF7F1FF0C484F
:1041300000210B4604463F2501EBC10204EB82023D
:104140002432426005754375491C89B22430042924
:10415000F2D34360057543750248046070BD0000EA
:10416000542A0020C409002010B560210948FFF737
:10417000CFFF0848002200F1180140F8181B521C1C
:1041800092B21831032AF8D3002101600249014894
:10419000086010BD082B0020C809002070B5FCF78E
:1041A00045F80E4C0546A07898B9E07888B900F03B
:1041B00019F86079217988420BD0094951F820100B
:1041C000E162886B401C8863E068401CE060FCF79B
:1041D00044F82846BDE87040FCF72CB88809002058
:1041E000602100200649054A01F11C038879105C12
:1041F0001B5CD25C02EBC000487170478D800008E8
:1042000088090020002204E0521C00F8013BD2B2D1
:10421000491C0B78002BF7D1002101701046704724
:104220000146002002E0401CC0B2491C0A78002A66
:10423000F9D170472DE9F05F9846DDE90ABA914659
:104240000D460646FBF7F2FF304FBC6A002C58D0F3
:1042500061691834B962FBF7EDFF44F8185CA67683
:10426000002525766576E58244F80CBC44E905A96D
:104270000C9824F8080C24F8068CF008E5772077D1
:10428000012306F0070103FA00F2E176A27703FAB0
:1042900001F262776560A5602561E5602562A5622F
:1042A0006562E5623F20256384F8340084F8355068
:1042B000183C2046FFF746FB2046FFF793FBFBF731
:1042C000B5FF0146124840F82640386BC4E90505A1
:1042D00000B184613C6394F83600BA791043B87138
:1042E0000A4A14F8340F1C326478135C23431354C5
:1042F000387A401C38720846FBF79CFF0020BDE866
:10430000F09FFBF797FF4220F9E7000088090020A3
:1043100060210020054CFBF789FF216A491C2162BE
:10432000FBF788FFFFF75FFBF5E700008809002037
:10433000144C02E0C820FFF74FFC60780028F9D049
:10434000642160690025B0FBF1F0606118B9257047
:10435000FF20FFF7F7FBFBF769FF216A2562A161E8
:10436000FBF768FFD4E90510B0FBF1F0C0F1640081
:104370002070FFF775FB00F007F86420FFF72CFCB6
:10438000E9E70000880900207CB50C4D002469464F
:104390002046FFF767FB58B955F8241041B10129B1
:1043A00006D0D1E9020200EB8200486401988864DB
:1043B000641CE4B21F2CEAD97CBD000060210020FF
:1043C000D30707D0920705D50022002902D004C0E8
:1043D000491EFAE7704700002DE9F04130480078A7
:1043E00000285BD0FEF736FE04462E4F2E4D2F4E92
:1043F000400525D52E48007828B12E48007810B108
:104400002D4900200880308D08B1401E3085FEF710
:104410008BFE2A49012008702948007810B100F06D
:104420006BF80DE0012239882648FEF765FD3888D3
:10443000298801220844401E81B22248FEF75CFD13
:10444000200503D5288808B9FEF76EFE708801287C
:1044500001D1FCF739FE1C481C4C007830B1608853
:10446000012801D0222801D100F032F8FEF7F2FD38
:10447000400513D5708D0122401C708560853988F8
:104480001048FEF739FD38882988BDE8F041084416
:10449000401E81B201220B48FEF72EBDBDE8F0811F
:1044A0006D0600209806002092060020981B002030
:1044B0006B0600206A0600207806002068060020AF
:1044C000660600207406002067060020DC1B002022
:1044D00010B50648FCF76AFE0548028805480188C1
:1044E000BDE810400148FEF789BD0000CC1800204F
:1044F000900600209A060020064810B5028806485B
:1045000001880648FEF7F8FCBDE810400348FCF7B8
:1045100071BF000092060020980600208818002035
:1045200000280CD000290AD0234AD0821378002B0F
:10453000D38A05D01844D082D0890844D0817047EE
:104540000344D382D3891944D181B2F90E104FF4B8
:104550007A7358430029B2F90E1005DD90FBF1F093
:1045600081B2D089401E05E0494290FBF1F081B252
:10457000D089401CD0800020D081D082C9B10F48A2
:10458000C162416941F001014161016841F00101ED
:104590000160416C41F400414164094960200870A8
:1045A0004FF0E0214FF00070C1F8000101201070C1
:1045B000704700F007B800007800002000000140BC
:1045C00019E400E00A48416C21F4004141640168AB
:1045D00021F00101016007490020C880C8810870EE
:1045E000C8824FF0E0214FF00070C1F880017047A1
:1045F000000001407800002070B5344C0025E0B385
:10460000D9B36562012222712083637833B1228B92
:1046100010442083208A0844208270BD238B1844D4
:104620002083208A08442082B4F910000028208BBF
:104630004FF47A7100FB01F0B4F9101005DD90FB26
:10464000F1F0218A80B2491E05E0494290FBF1F069
:10465000218A80B2491C2181216AB4F910301944A1
:10466000216225822583B8B14FF08041C862486934
:1046700040F001004861086800E011E040F00100EE
:1046800008601349602008704FF0E0214FF080501F
:10469000C1F80001627070BDBDE8704000F028B83C
:1046A000606A401C6062606AB0F5FA7FF3D92079D5
:1046B0000128F0D1216A07A001F012F8A16A08A030
:1046C00001F00EF8A5622562257170BD780000200A
:1046D0001CE400E053756D3D256C640A0000000089
:1046E00050756C734E756D3D256C640A00000000BA
:1046F0004FF08040016821F001010160064900206F
:1047000008810882487008834FF0E0214FF0805004
:10471000C1F880017047000078000020002841D0D7
:1047200000293FD0214A50839378002B538B1844A3
:104730005083508A0844508234D1B2F912000028C4
:10474000508B4FF47A7100FB01F0B2F9121005DDC5
:1047500090FBF1F0518A80B2491E05E0494290FB7E
:10476000F1F0518A80B2491C51810021518351825C
:10477000C8B10F4908600E481838016841F00101BE
:1047800001600B482C38016841F0010101600949C2
:10479000602008704FF0E0214FF00050C1F8000198
:1047A00001209070704700F007B8000078000020EA
:1047B0002C0400401DE400E00848016821F00101DC
:1047C00001600749002048814882887048834FF083
:1047D000E0214FF00050C1F8800170470004004014
:1047E00078000020002841D000293FD0214A908342
:1047F000D378002B938B18449083908A084490823E
:1048000034D1B2F914000028908B4FF47A7100FB78
:1048100001F0B2F9141005DD90FBF1F0918A80B23D
:10482000491E05E0494290FBF1F0918A80B2491C93
:104830009181002191829183C8B10F4908600E488F
:104840001838016841F0010101600B482C380168FB
:1048500041F0010101600949602008704FF0E0213A
:104860004FF08040C1F800010120D070704700F087
:1048700007B80000780000202C0800401EE400E08B
:104880000848016821F00101016007490020888182
:104890008882C87088834FF0E0214FF08040C1F8D3
:1048A00080017047000800407800002030B536488D
:1048B000016841F480310160816841F40031816018
:1048C000416921F480714161304859218162016858
:1048D00041F080010160C16841F00101C1602C48D4
:1048E000016841F480310160294908310A6842F4C5
:1048F00000320A60264A1432136823F4807313606E
:104900002C2403059C621D6845F080051D60DD6850
:1049100045F00105DD60036823F44073036003681C
:1049200043F4807303600B6843F400730B601368F7
:1049300023F010031360174B1C60164B283B1D68B7
:1049400045F080051D60134B1C3B1D6845F00105BB
:104950001D60036843F480530360086840F400500E
:104960000860106820F0400010600B4804600A489E
:104970002838016841F08001016007481C3801684F
:1049800041F00101016030BD000002400000014023
:10499000000402402804004028080040064B10B5DF
:1049A0005A88DC88511C89B28C4200D1002103EB6B
:1049B00082029060598010BD20190020F0B54B6A2A
:1049C0004FF040652BB1AA4203D08B6A04685B1E8E
:1049D00023618B69002B5DD00C6A7CB304688B6803
:1049E000E361CB69C3B1D1E90B4634434F6A4E6BE7
:1049F0003E4334438E8A44EA86440E6934430E6A49
:104A00003443CE6834431C438B691C430B687DE000
:104A1000006849688161F0BDD1E90B3423434D6AD8
:104A20004C6B2C4323438C8A43EA84430C69234315
:104A30000C6A23438C690968234354E0FFE7CC697F
:104A4000BCB1D1E90B673E43D1F824C04F6B47EAB4
:104A50000C073E438F8A46EA8746CF683E4326438B
:104A60001E430B681E43036816435E61AA42CFD102
:104A7000F0BDD1E90B452C434E6A4D6B00683543C0
:104A80002C438D8A096844EA85441C430C43144333
:104A90004461F0BD0B6A5BB304688B68E361CB696A
:104AA00093B1D1E90B4634434F6A4E6B3E433443D6
:104AB0008E8A44EA86440E6934430E6A3443CE68D3
:104AC00034431C438B6921E0D1E90B3423434D6A05
:104AD0004C6B2C4323438C8A43EA84430C69234365
:104AE0000C6A8969234300680B4313434361F0BD9B
:104AF000CB6983B1D1E90B4634434F6A4E6B3E43D9
:104B000034438E8A44EA8644CE6834431C430368A7
:104B100014435C61AAE74B6A002BE8D0D1E90B454E
:104B20002C434D6B898A1D432C43006844EA814124
:104B300011434161F0BD2DE9F0411E4617468846FC
:104B40000546069C11E0601C0FD024B1FDF746FC21
:104B5000801BA04209D9042085F84100686C40F010
:104B6000010068640120BDE8F0812868806810EACF
:104B7000080000D00120B842E5D10020F3E7000092
:104B800010B5002000F012F900280ED020220749AD
:104B9000002000F017F9002807D005480088BDE87C
:104BA000104081B2014800F005B810BDE0150020AA
:104BB0000C00002000B585B0002101910291039105
:104BC00004910178642970D065293FD070290DD1F6
:104BD00002A9009101AB03AA4DA1FBF7CFFB03286B
:104BE00006DA4EA14FF0000000F080F905B000BDDC
:104BF000FCD1039830B101280BD0022810D0032833
:104C00001BD114E00198029980B209B2FFF788FC29
:104C100013E00198029980B209B2FFF7EDFC0CE0B5
:104C20000198029980B209B2FFF778FD05E001987A
:104C3000029980B209B2FFF7D5FD029800903FA11A
:104C40000020019B039A00F051F9CFE704AB03AABF
:104C500043A1FBF793FB0228C3DBC7D1039830B114
:104C600001280AD0022813D003280FD116E0049897
:104C70004FF0110130B1012006E004984FF013010C
:104C80000028F8D14FF0000001F038FA36A12DE0ED
:104C900004984FF015010028F4D0ECE704984FF089
:104CA00017010028EED0E6E7FFE704AB03AA35A121
:104CB000FBF764FB022894DB98D1039830B10128FC
:104CC0000AD0022818D003280FD11BE004984FF017
:104CD000100130B1012006E004984FF012010028C5
:104CE000F8D14FF0000001F009FA28A1DDE9032313
:104CF000002000F0FBF879E704984FF01401002839
:104D0000EFD0E7E704984FF016010028E9D0E1E77B
:104D10007020256420256420256400005B65727284
:104D20006F725D20436F6D6D616E6420666F726D92
:104D30006174206572726F72210D0A0070756C7358
:104D4000652C747970653A25642C206379636C65F1
:104D50003A25642C2070756C73653A25640A00004E
:104D60006520256420256400656E61626C652C20D9
:104D7000747970653A25642C2073746174653A25E2
:104D8000640A00006420256420256400646972655B
:104D90006374696F6E2C20747970653A25642C20D9
:104DA00073746174653A25640A000000044900EBDD
:104DB000400001EBC000C16E006F081A7047000090
:104DC000E830002010B5EFF31184202383F311881D
:104DD00000F004F8E1B281F3118810BD2DE9F0472D
:104DE0000F461C4904461646087808B901F098F9A0
:104DF000184904EB440001EBC005B846D5E91B9403
:104E0000002760354C4511D9A868071BB74200D36D
:104E1000374668683A4601194046FBF78AFAA8689F
:104E2000F61B3C44B844A04200D10024A9EB040086
:104E3000B04200D206463EB168683246011940468B
:104E4000FBF777FA3744344407B12C613846BDE8A4
:104E5000F0870000E83000202DE9F04107460B48BC
:104E600015460E46007808B901F05AF9EFF311849F
:104E7000202080F311882A463146384600F008F891
:104E8000E1B281F31188BDE8F0810000E830002034
:104E900070B50E46144900EB400001EBC005144606
:104EA000E86A183520B101280FD0022805D113E097
:104EB000284601F067F9A04201D2002411E0224601
:104EC0003146284601F07EFA0BE0284601F05AF9F7
:104ED000A042F4D20446F2E73146284601F045FAF2
:104EE0000446204670BD0000E83000200FB408B52D
:104EF00004A900916A46039900F003F801B05DF837
:104F000014FB2DE9F04198B0804607A8029040209C
:104F10000026CDE90306CDE9056815460C4614F8D0
:104F2000011B00296FD0252908D002A801F0FEF945
:104F300005980028F3DA18B0BDE8F08100200122BE
:104F4000217823291ED02B2919D02D2902D03029D0
:104F500008D102E040F0010001E040F00200641CD2
:104F6000002AEDD100222178A1F130030A2B0CD2C6
:104F700002EB820201EB4202303A641CF3E740F09C
:104F80000400ECE740F00800E9E70023CFB22E2F41
:104F90000BD114F8011FA1F130070A2F05D203EB42
:104FA000830301EB4303303BF3E76C290DD0682901
:104FB0000BD070294AD00BDC252914D058292BD0CE
:104FC00063290CD0642911D112E014F8011FECE719
:104FD00073292CD0752917D0782907D11CE02868AF
:104FE000011D2960017802A801F0A0F9641C9FE767
:104FF00029680F1D2F600968CDE900200A2202A848
:1050000001F0CBF8F2E72BE029680F1D2F6009684B
:10501000CDE900200A2206E029680F1D2F600968EB
:10502000CDE90020102202A801F01AF9DEE7286875
:10503000011D2960076817F8011B0029D6D002A8B6
:1050400001F074F905980028F5DACFE72868011D0A
:10505000296001680820CDE9000603461022E2E736
:10506000059800287FF767AF049820B1024607A98A
:105070004046FFF7F1FEDDE90410084405905AE7C9
:10508000F0B585B04FF400600224002503260927FF
:105090008DE8F10069461848FDF7BEF808208DE854
:1050A000F10069461548FDF7B7F84FF4F0608DE858
:1050B00071000A20049069461148FDF7ADF8124CC2
:1050C000104E20462660FDF7D0FA0120C4E90060AA
:1050D0002020A0601020E0600B2020614FF4E060F1
:1050E000C4E905058020C4E907052046FDF7DAFA82
:1050F00000F00CF805B0F0BD00080240000C0240C2
:1051000000100240001000A00016002030B58FB043
:1051100000203821CDE900100E904FF480710A90E4
:10512000CDE905010D9008900901079009900B90B9
:1051300041F2883503910C902A4669460848FDF7EC
:1051400051FA084C30B92A460EA90548FDF769FB0B
:10515000002803D0A06940F40010A0610FB030BD5A
:10516000001600200010024070B515460C46064699
:10517000FCF7B3FCB4F5805F05D32A4621463046E0
:1051800000F040F804E0EAB22146304600F0ECF8C6
:10519000BDE87040FCF76EBF30B58FB00B22CDE993
:1051A000002004200A9006200590C001069080008F
:1051B000079000214FF4805003900E914FF0407003
:1051C0000D91CDE908100B9141F288350C912A46DA
:1051D00069460A48FDF706FA094C28B92A460EA97D
:1051E0000648FDF7BDFA30B1A06940F40010A06197
:1051F00000200FB030BD0E98FBE700000016002025
:10520000001002402DE9F74F92B000250F9553A0F2
:105210001095009517460068119041EA07401090DC
:105220004FF0004000904FF44070CDE906508000F0
:1052300008904FF4805004904FF040700E95CDE9E7
:1052400009504FF004080C954FF002094FF44376D3
:10525000CDF82C800D95CDE9019641F2883201A957
:105260003F48FDF7BFF93F4C00286FD141F288322B
:1052700011A93B48FDF7D5FA002867D14FF0060B7E
:10528000B246CDF818B00B20CDF82C80CDE9010A3C
:1052900041F28836324601A93148FDF7A3F90028CA
:1052A00054D132460FA92E48FDF75AFAF0BB9DF8AB
:1052B0003F000006EED44FF44270CDE90190069510
:1052C000A9464546324601A92548CDF82C80FDF770
:1052D00089F958BB324610A92148FDF7A2FA28BB2C
:1052E000324601A91E48CDF808A00B95FDF77AF9C2
:1052F000E0B9324669461A48FDF793FAB0B9CDF8DD
:1053000018B00B200B950190324601A91448FDF707
:1053100069F958B932460FA91148FDF721FA28B9A1
:105320009DF83C00C007EFD0324600E00EE001A936
:105330000B48CDF808900B97FDF754F930B9324679
:1053400007481299FDF70CFA002803D0A06940F431
:105350000010A06115B0BDE8F08F00000000004013
:1053600000160020001002402DE9F041164690B0D2
:1053700041EA0641804641F0404100204FF4407729
:1053800000910690B900CDE907714FF48051049166
:1053900039040E90CDE909010C900D900220019086
:1053A000381D0290042041F288350B902A4601A94D
:1053B0001A48FDF717F91A4C40BB2A4669461748A8
:1053C000FDF72FFA10BB0B200190062006902A460D
:1053D00001A91248FDF706F9C0B92A4669460F48E7
:1053E000FDF7BEF990B99DF803000006EFD42A46F8
:1053F00001A90A4802970B96FDF7F4F830B92A463E
:1054000041460648FDF7ACF9002804D0A06940F4F5
:105410000010A061002010B0BDE8F081001600204F
:105420000010024030B58FB000220E910221CDE96C
:10543000001004200A904FF44070CDE90520800050
:105440000790C80203904FF040700D92CDE90820FC
:105450000B9241F288350C922A4669460848FDF7BE
:10546000C1F8084C30B92A460EA90548FDF7D9F90C
:10547000002803D0A06940F40010A0610FB030BD37
:1054800000160020001002402DE9F74F92B00026D0
:105490000F9652A01096009615460068119041EAAA
:1054A000054010904FF0004000904FF44070CDE95F
:1054B0000660800008904FF4805004904FF04070D8
:1054C0000E96CDE9096004200B900C964FF002086F
:1054D0004FF4457941F288370D963A4601A9404884
:1054E000CDE90189FDF77EF83E4C00286ED13A46A1
:1054F00011A93B48FDF795F9002867D14FF0060B3D
:105500004FF00B0ACDF818B0CDF804A03A4601A927
:105510003348FDF767F8002858D13A460FA93048BC
:10552000FDF71EF9F0BB9DF83F000006EED44FF4E6
:1055300044700696CDE901803A4601A92848FDF756
:1055400051F878BB3A4610A92548FDF76AF948BBDF
:105550003A4601A92248CDF80890FDF743F808BB68
:105560003A4669461E48FDF75CF9D8B9CDF818B03F
:10557000CDF804A03A4601A91948FDF733F888B9D7
:105580003A460FA91648FDF7EBF858B99DF83C00CC
:10559000C007EFD02020CDE90180A80706D005F094
:1055A000030000E012E0C0F104000544A8B2069632
:1055B0000B903A4601A90A48FDF714F830B93A466B
:1055C00007481299FDF72DF9002803D0A06940F48F
:1055D0000010A06115B0BDE8F08F00000000004091
:1055E00000160020001002402DE9F0438FB00D4658
:1055F0008146904600204FF4407106AB8A0000902F
:1056000083E807004FF4805204920A040E90CDE91B
:1056100009020C900D90042602200B96CDE90101A1
:1056200041F288373A4601A91E48FCF7DBFF1E4CC1
:1056300058BB3A4649461B48FDF7F3F828BB45EAF4
:10564000084040F0004000904FF4417002903D4609
:105650003A4601A90B961348FCF7C4FFA8B92A469D
:1056600069461048FDF7DDF878B90B200190062057
:1056700006902A4601A90B48FCF7B4FF28B92A4630
:1056800069460848FDF76CF830B1A06940F4001095
:10569000A0610FB0BDE8F0839DF803000006E8D4D8
:1056A000F7E70000001600200010024070B5154614
:1056B0000C460646FCF711FAB4F5805F05D32A467E
:1056C00021463046FFF7E0FE04E0EAB221463046CC
:1056D000FFF78AFFBDE87040FCF7CCBC70470000C4
:1056E0000FB4064810B503AA029900F08DFE0348D6
:1056F00000F006F810BC5DF814FB000088160020CE
:1057000000B5034608E00A2803D10D2000F082FC12
:105710000A2000F07FFC5B1C18780028F3D100BD44
:1057200038B50E4CADF80010E27B824200D0E07339
:10573000A1F57F42FF3A07D0ADF8001002224FF4E6
:105740009A716846FDF704FCE07BADF80000022288
:105750004FF498716846FDF7FBFB38BD64060020E6
:1057600038B50446002010EE101A009020488142FF
:1057700004DB10EE101A1F4881422DD810EE100ADB
:10578000FBF75FF89FED1C1B53EC112BFAF7B8FEEB
:105790009FED1B1B53EC112BFAF7CBFF9FED1A1B50
:1057A00053EC112BFAF753FFFBF732F881B2052CBB
:1057B0000CD2DFE804F0030512151800009102E096
:1057C00041F4803011E0684600F04AFC4FF4E810E4
:1057D0000090684600F044FC38BD41F4003004E01D
:1057E00041F4403001E041F480200090EBE70000FC
:1057F000CDCC2C41CDCC2CC19A9999999999254021
:105800009A99999999993540000000000000F0405C
:105810000022642311461046FEF70CFAF8E7000058
:105820002DE9F047304800250580304800780028F1
:1058300058D02F4EDFF8BC80307820B1B8F8001077
:10584000491CA8F800102C48018841B32B4C2C4867
:105850002C4A278800881288DFF8AC908F4215D92F
:105860002A49098940B1DFF8A8C0BCF828308B422A
:1058700002D8DB1CACF8283042B1A8B9B9F828002E
:10588000884205D8C01CA9F8280001E060B95AB1C7
:10589000FDF7E0FB000503D42088401C208005E0D4
:1058A0002580A9F8285001E07F1C2780194800783E
:1058B00020B91948007808B1FEF71EFEFBF704FC7A
:1058C000307800280ED0154C208800280AD0B8F86F
:1058D00000104646884205D1FEF7FAFD20880128CF
:1058E00000D13580BDE8F087800600206A060020E0
:1058F000670600208A0600207A060020780600202D
:105900009206002090060020DC1B0020D00600201C
:10591000981B00206D0600206606002088060020E7
:1059200010B50948002404800848007840B10848B0
:105930004088032804D10748008808B9FEF7C8FD4D
:105940000548048010BD0000840600206706002082
:10595000DC1B0020880600208A06002010B5FCF71A
:1059600043FDFAF763FC064A1178491C1170FAF7F7
:1059700061FCFEF79BF9BDE81040FDF7D9BE0000C1
:105980008A09002070B52C4D94B00026286840F09C
:1059900080502860286800F08050129027480168E5
:1059A00041F4404101600068022400F4404012903C
:1059B00001200090000401908001CDE906401920EB
:1059C00008904FF4B470CDE909040B9468460C9428
:1059D000FDF768F800B1FEE7FCF78EFD00B1FEE7C9
:1059E0000DA90F2081E851004FF4A05010904FF402
:1059F0008050119006210DA8FCF770FF00B1FEE762
:105A00000D481038016841F01F0101600A4808384C
:105A1000016841F002010160286840F06F002860D1
:105A20000548001D016841F001010160286840F44B
:105A30000030286014B070BD403802400070004053
:105A40001048016841F4700101600F48016841F09D
:105A5000010101600C4A00210832116002680B4B01
:105A60001A400260031D0A4A1A60026822F480226A
:105A7000026005480C300160024958068039086010
:105A80007047000088ED00E000380240FFFFF6FE9E
:105A900010300024F0B42E490869C00756D02D48B4
:105AA00043782D4A002B536947D023F48073536108
:105AB00000244470294D2878294B012821D1294EF2
:105AC0003088F0B1284A1088D8B11888378838440F
:105AD0001880B3F90000002810884FF47A7700FB93
