:020000040800F2
:10000000C8340020D9010008EB2E0008112C00088C
:10001000BF2E0008711100080956000800000000FA
:10002000000000000000000000000000754C000807
:10003000D1130008000000006B0200080D4F0008FB
:10004000F3010008F3010008F3010008F3010008C0
:10005000F3010008F3010008D9190008311A00085B
:10006000F3010008F3010008F3010008F3010008A0
:10007000F3010008F3010008F3010008F301000890
:10008000F3010008F3010008F3010008F301000880
:10009000F3010008F3010008F3010008891A0008C1
:1000A000F301000845500008F3010008F3010008BF
:1000B0001D51000809520008E5520008F30100082C
:1000C000F3010008F3010008F3010008F301000840
:1000D000F3010008F301000839550008F301000896
:1000E000F3010008F3010008F3010008F301000820
:1000F000F3010008F3010008F3010008F301000810
:10010000F3010008F3010008F3010008F3010008FF
:10011000F3010008F3010008F3010008C1530008CF
:10012000F3010008F3010008F3010008F3010008DF
:10013000F30100080000000000000000F3010008C7
:10014000F3010008F3010008F3010008F3010008BF
:10015000F3010008F3010008F3010008F3010008AF
:10016000F3010008F3010008F3010008F30100089F
:10017000F3010008F3010008F3010008000000008B
:1001800000000000F3010008000000000000000073
:10019000F30100080000000000000000F301000867
:1001A000000000000000000000000000F301000853
:1001B000F3010008F3010008F3010008F30100084F
:1001C000F3010008DFF80CD000F03AFB00480047CC
:1001D000CD5F0008C8340020064880470648004725
:1001E000FEE7FEE7FEE7FEE7FEE7FEE7FEE7FEE7E7
:1001F000FEE7FEE7F14F0008C501000872B6704740
:1002000062B67047EFF3108072B6704780F31088C3
:100210007047B0FA80F0704790FAA0F0704730BF96
:10022000704720BF70470000EFF3108072B6704730
:1002300080F3108870471D484FF0FF0101700020C7
:1002400080F309881A48012101701A484FF0805143
:10025000016062B6FEE717484FF0805101607047B9
:1002600014484FF080510160704772B6EFF3098077
:1002700028B1203880E8F00F0F490968086000B500
:100280000E4880475DF804EB0D480E490A7802706D
:1002900009480D490A680260106890E8F00F2030A4
:1002A00080F309884EF0040E62B6704722ED00E03C
:1002B0008B09002004ED00E0A80900206D3600083D
:1002C0008809002089090020B00900202DE9F05F8D
:1002D0000546002092469B468846064681464024B5
:1002E0001BE0284641464746224600F0F9F95346AE
:1002F0005A46C01A914110D311461846224600F0C2
:10030000E0F92D1A67EB01084F4622460120002133
:1003100000F0D7F917EB00094E41201EA4F10104AB
:10032000DFDC484631462A464346BDE8F09F2DE9CA
:10033000FE4F804681EA0300C00F0C46009021F07A
:10034000004123F00045B8EB0200A94105D2404628
:10035000214690461C460B46024623F000401043BF
:1003600047D0270DC7F30A00C3F30A510290401A81
:10037000019040286BDAC3F3130040F4801B00980F
:10038000924620B10023D2EB030A63EB0B0B0198DA
:100390005946C0F14002504600F093F906460D461A
:1003A00050465946019A00F0ABF910EB0800614144
:1003B000002487EA115284EAE7731A4340D0009A76
:1003C00062B3019A012A4FEA075215DC001B61EB68
:1003D00002014FF0004202EA0752CDE90042001C40
:1003E00041F5801132462B4600F0ABF903B0BDE871
:1003F000F08F40462146F9E7001B61EB0201001C2B
:1004000041F5801300185B412018A2F5001747EB57
:10041000030140EAD570B6196D4111E06D084FEA4D
:10042000360645EAC0754FEA0752001B61EB020130
:10043000001C41F5801149084FEA30000019514174
:1004400032462B4603B0BDE8F04F00F06BB9009880
:10045000012240000023D0EB020263EBE07300981E
:1004600021464FEAE074B8EB000061EB0401E9E7D4
:1004700083F000435BE781F0004158E72DE9FE4F30
:1004800081EA030404F0004421F0004100944FF09D
:10049000000B23F0004350EA01045ED052EA03044B
:1004A0005BD0C3F30A54C1F30A552C44A4F2F334CD
:1004B0000194A0FB0254C1F3130141F48011C3F372
:1004C000130343F4801301FB024400FB034E840A30
:1004D000970A44EA815447EA8357A4FB07680295C8
:1004E0008D0A05FB07854FEA932C04FB0C54270566
:1004F000029D4FEA065847EA1637B5EB08056EEB42
:10050000070C870E920E47EA811742EA8312A7FB77
:100510000201B6EB0B0164EB00042B0D43EA0C3334
:100520005E1844EB1C50DA465146E7FB0201C5F366
:1005300013044FEA0B3343EA14534FEA0432019C8D
:1005400043EA0603A4F10C040294009CCDE900B434
:1005500000F0F7F803B0BDE8F08F00200146F9E79E
:100560002DE9F04D81EA030404F0004B21F0004531
:1005700014464FF0000A23F0004150EA050220D053
:1005800054EA01021DD0C5F30A570246C5F313030E
:10059000C1F31300C1F30A5640F4801543F48013ED
:1005A000A7EB0608101BD64608F2FD3873EB0500D2
:1005B00002D308F1010801E092185B41B8F1000F85
:1005C00003DA00200146BDE8F08D00204FF48011D1
:1005D000064684460EE0171B73EB050705D3121B76
:1005E00063EB050306434CEA010C49084FEA30006F
:1005F00092185B4150EA0107EDD152EA030012D094
:1006000082EA040083EA0501084305D0101BAB41D0
:1006100006D20122002306E000224FF0004302E050
:100620006FF0010253101AEB06004CEB085110EB6F
:100630000A0041EB0B01BDE8F04D00F073B8C1F3C7
:100640000A5210B5C1F3130140F2FF3341F4801197
:100650009A4201DA002010BD40F233439A42A2F2DE
:10066000334203DC524200F03BF810BD904010BD15
:1006700000F0004230F000400AD0C10D01F5607179
:10068000C0F3160042EA0151C20840071143704707
:1006900000200146704730B50B460146002020225D
:1006A000012409E021FA02F59D4205D303FA02F57F
:1006B000491B04FA02F52844151EA2F10102F1DCDF
:1006C00030BD202A04DB203A00FA02F100207047F6
:1006D0009140C2F1200320FA03F319439040704780
:1006E000202A04DB203A21FA02F00021704721FA87
:1006F00002F3D040C2F120029140084319467047EE
:10070000202A06DBCB17203A41FA02F043EAE073D5
:1007100006E041FA02F3D040C2F1200291400843C2
:100720001946704710B5141E73F1000408DA401C16
:1007300041F1000192185B411A4301D120F0010000
:1007400010BD2DE9F04D92469B4611B1B1FA81F2F0
:1007500002E0B0FA80F220329046FFF7B2FF044682
:100760000F4640EA0A0041EA0B0153465A46084345
:1007700013D0114653EA010019D0C8F14002504687
:10078000FFF7AEFF05460E46504659464246FFF774
:1007900098FF084305D0012004E020463946BDE813
:1007A000F08D0020054346EAE0762C4337430A9853
:1007B0006305E40AA0EB08000022FD0A44EA47545E
:1007C0000A3002D500200146E9E701051019694108
:1007D000DDE9084500196941BDE8F04DA2E7C1F324
:1007E0000A52C1F3130140F2FF3341F480119A42DF
:1007F00002DA00200146704740F233439A42A2F2E7
:10080000334202DC5242FFF76BBFFFF75ABF0000D2
:1008100030B5041E71F1000404DB4FF00044404287
:1008200064EB0101141E73F1000405DB1C464FF05C
:100830000043524263EB0403994208BF904230BD2B
:10084000064C074D06E0E06840F0010394E807001D
:1008500098471034AC42F6D3FFF7B8FC7474000824
:100860009474000870B58C1810F8015B15F007033C
:1008700001D110F8013B2A1106D110F8012B03E039
:1008800010F8016B01F8016B5B1EF9D12B0705D441
:100890000023521E0DD401F8013BFAE710F8013B8A
:1008A000CB1A921C03E013F8015B01F8015B521EA6
:1008B000F9D5A142D8D3002070BD000070B586B034
:1008C000012001900020184D802402906946009478
:1008D000284601F0D3F90820144E009069463046AE
:1008E00001F0CCF9202000906946304601F0C6F9AD
:1008F00069463046009401F0C1F901228021284662
:1009000001F099FA01220821304601F094FA0122FF
:100910002021304601F08FFA01228021304601F07B
:100920008AFA06B070BD0000000C024000040240CC
:100930002DE9F04385B001260027B402DFF894903A
:100940008DE8D0006946484601F098F9650169468E
:100950004846009501F092F90220DFF87C80009073
:100960006946404601F08AF969464046009601F022
:1009700085F91A4ECDE900476946304601F07EF907
:10098000042100916946404601F078F9102000905A
:100990006946404601F072F9A00000906946304671
:1009A00001F06CF901222146484601F044FA012287
:1009B0000221404601F03FFA01221146404601F073
:1009C0003AFA00222946484601F035FA05B0BDE85A
:1009D000F083000000000240000C024000080240CA
:1009E0002DE9F74F3A4D92468B464FF000084FF4F1
:1009F000806442462146284601F01DFA012000F09D
:100A0000E8FC01222146284601F015FA012000F0F9
:100A1000E0FC21462F4801F009FA034607E0214691
:100A20002C4801F003FA0346012000F0D2FC002B11
:100A3000F5D1DFF8A49000220221484601F0FBF92D
:100A400000243AE000273E464FF48051214801F04F
:100A5000EDF928B1B8F1000F05D14FF0010802E01F
:100A6000B8F1000F22D0002500220121484601F0F4
:100A7000E2F9012000F0ADFC0421484601F0D6F96E
:100A800000EB470087B21021484601F0CFF900EB98
:100A9000460086B201221146484601F0CCF90120F9
:100AA00000F097FC6D1CEDB2102DDDD3009820F8FE
:100AB00014702BF81460641CE4B25445C2D303B024
:100AC0004846BDE8F04F0122022101F0B4B9000010
:100AD0000000024000080240000C024070B50122F4
:100AE000094DD4032146284601F0A5F9012000F064
:100AF00070FC00222146284601F09DF9BDE87040B7
:100B0000012000F066BC00000000024070470000B9
:100B10002DE9F35F4FF0000A554654465646DFF87C
:100B2000CCB01FE00BEB4600408802F052FA070001
:100B300023D0B869B0F8009000200FE000F1010860
:100B400008F0FF00394602F0E1F9B96901EBD00085
:100B5000006854FA80F084B21FFA88F04845EDD35B
:100B6000761CB6B2BBF80010B142DBD8E41D4FEAE8
:100B7000D409BAF1000F04D02AE000244FF0250A6E
:100B8000F4E7DFF868B00026ABF1080B1CE00BEBD4
:100B90004600408802F01DFA070023D0B8690024FF
:100BA000B0F800800CE0641CE0B2394602F0AEF907
:100BB000B96901EBD000006855FA80F085B2A4B2A3
:100BC0004445F0D3761CB6B2BBF80010B142DED873
:100BD0000099ED1DE808088001995046A1F80090A1
:100BE000BDE8FC9F00254FF0240AF1E7D80800205B
:100BF0002DE9F0478A4E05464FF4005A51463046DB
:100C000001F014F9874CC0434FF48049618860F3C8
:100C1000000161804946304601F008F96188C0430F
:100C200060F3410161804FF400484146304601F0D5
:100C3000FDF86188C04360F3820161800121304684
:100C400001F0F4F86188C04360F3C30161800221C0
:100C5000304601F0EBF86188C04360F30411618015
:100C60000421304601F0E2F8C143608861F3451089
:100C700060800821304601F0D9F86188C04360F3F4
:100C80008611694F61800121384601F0CFF86188F3
:100C9000C04360F3C71161800221384601F0C6F8F5
:100CA0006188C04360F3082161800421384601F067
:100CB000BDF86188C04360F349216180082138464E
:100CC00001F0B4F86188C04360F38A21618010218B
:100CD000304601F0ABF8C1436088544F61F3CB203C
:100CE00060800421384601F0A1F86188C04360F3B8
:100CF0000C314F4E61804146304601F097F86188D3
:100D0000C04360F34D3161803115384601F08EF8F3
:100D10006188C04360F38E316180B114384601F0C0
:100D200085F86188C04360F3CF31C1F340020846C3
:100D300062F35F00C1F3800240EA8200C1F3C002A7
:100D400040EAC200C1F3001240EA0210C1F34012AF
:100D500040EA4210C1F3801240EA8210C1F3C0128F
:100D600040EAC210C1F3002240EA0220C1F340224F
:100D700040EA4220C1F3802240EA8220C1F3C0222F
:100D800040EAC220C1F3003240EA0230C1F34032EF
:100D900040EA42306180C1F3803240EA8234C80BBD
:100DA000C00304432348006801F034FF1D492C8030
:100DB00008396880088800EB8000C0F3903201F1A8
:100DC000320042804988A0F12E0201EB8101C1F37B
:100DD00090318180118801EB8101C1F39031C18094
:100DE000518801EB8101C1F3903101814188A980D3
:100DF0008188E980C1882981008968814946304617
:100E000001F014F8074C5146A41D6080304601F0F3
:100E10000DF8A0806088A881A088E881BDE8F087EF
:100E200000080240BE08002000000240000402400A
:100E3000001002400C0000202DE9F0470188851CBD
:100E4000408841EA004000F06DFC914CB5F9021079
:100E500004F10C096180A888A080E888E0802889D6
:100E600020816B896381A889A9F80200E889A9F823
:100E70000400288AA9F80600688AA9F80800A88A48
:100E8000A9F80A0004F11807E88A7880288BB8804E
:100E9000688BF880A88B3881E88B788104F124086E
:100EA000288CA8F80200688CA8F80400A88CA8F880
:100EB0000600E88CA8F8080035F8280FA4F14E06C3
:100EC000A8F80A003088834204D0012003F074F8A7
:100ED00060893080E0884FF0100108B1012000E007
:100EE000002004F0E1FB20894FF0110108B101203E
:100EF00000E0002004F0D8FBB9F80A0071884C46E5
:100F0000884206D0B4F90210012003F0C1F86089CC
:100F10007080E0884FF0120108B1012000E000204D
:100F200004F0C2FB20894FF0130108B1012000E05A
:100F3000002004F0B9FB7889B188884206D0B7F95F
:100F40000210012003F036F97889B080F8884FF05C
:100F5000140108B1012000E0002004F0A5FB38894D
:100F60004FF0150108B1012000E0002004F09CFBC7
:100F7000B8F80A00F1884446884206D0B4F9021055
:100F8000012003F07BF96089F080E0884FF01601C2
:100F900008B1012000E0002004F086FB20894FF01A
:100FA000170108B1012000E0002004F07DFB384C5F
:100FB000B5F9021030346180A888A080EA88E28008
:100FC0002A8922816A896281AA89A281EA89E281C9
:100FD0002A8A228235F8122F62823289904207D003
:100FE00000EE101A30810020B8EEC00A03F082FE35
:100FF00020897189884209D07081B4F9060000EE19
:10100000100A0120B8EEC00A03F074FEA089B1896D
:10101000884209D0B081B4F90A0000EE100A02201B
:10102000B8EEC00A03F066FE208AF189884209D032
:10103000F081B4F90E0000EE100A0320B8EEC00AE9
:1010400003F058FE608A318A884206D01049308207
:1010500038390222081FFFF7C3FC0D4C6A88283C70
:101060004FF480516280A8880A4DA08002B101220D
:10107000284600F0E0FEA0884FF4006108B101228C
:1010800000E000222846BDE8F04700F0D4BE000092
:10109000F20800200010024030B5044600204FF650
:1010A000FF7505E0204600F065F8002803D12834DC
:1010B0002189A942F6D130BD10B500F0CFFE03F072
:1010C00039FF01F065FE244CA06940F48010A06156
:1010D000A06940F40010A061A06940F48000A06104
:1010E00000F00AFD1D48006801F094FD0022611522
:1010F0001B4800F0A0FE00F077F900F02FFA03F093
:1011000021F904F029FAFFF713FCFFF7E7FCFFF7DA
:10111000D5FB00F0FBF801F0DBFC01F0ABFE114960
:101120001148FFF7F5FCA06940F01000A061A0692C
:1011300040F02000A061A06940F04000A061A069DB
:1011400040F48020A061A06940F40020A06107491C
:101150004FF47A70088010BD001002400C0000208F
:10116000000402408E0600208C060020A40000200F
:10117000FEE7000030B500B3144A0024116849B1FD
:101180000D8903899D4215D904601168416008608A
:10119000106018E010604460046014E007D90A6829
:1011A000C0E900210A6802B1506008600BE04A689B
:1011B00032B111460A899A42F0D14FF0010030BD98
:1011C0004860C0E900144FF0000030BDB0000020BE
:1011D00030B5064D2C6803E02089646800F07AF889
:1011E000002CF9D10020286030BD0000B0000020A4
:1011F0000148006870470000B0000020024900204C
:101200000860024908807047400600204809002015
:10121000084900B50020086001F56770FFF73CFF42
:10122000002805D103485DF804EB001DFFF734BF2B
:1012300000BD0000B000002010B51A482023002493
:1012400003804480446044F21F0284608281164916
:10125000C0E904148483046280F84040134803808A
:101260004480446084608281C0E904148483046201
:1012700080F840400E480470FFF7CAFF08B1FFF73E
:10128000A7FF0C4804700C4804700C4804800C48FC
:1012900004700C4804600C4804600C4804600C485E
:1012A000046010BD781B0020A0860100BC1B00203C
:1012B000D80600203D0900203E09002046090020F4
:1012C0003F0900205009002054090020580900203F
:1012D0005C0900200C4B196813E00A8982420FD187
:1012E000D1E9002002B1506000B1026000220A6022
:1012F0004A601A6809891289914200D118607047C2
:1013000049680029E9D17047B00000203EB50A487D
:1013100000900A4801900A486D4600240290284631
:1013200004F074F9C821491E0029FCDC641C2D1D41
:10133000032CF4DB3EBD00000F00100005000C0084
:101340000F00190070B5172000F0BFFD1D4A9079FD
:1013500048B1D08B002358B1918B814208D3D3710F
:10136000107A00B11372BDE87040172000F0B8BDCC
:10137000918B814201D2491C91830124D471518CFB
:1013800021B1108C8842EAD2401C10840E480F4DC7
:10139000018D2D89A94208D21472B2F918000028D3
:1013A000E1DD508B401C5083DDE7117A0029DAD053
:1013B000137280F84040B2F918000028D3DD53833F
:1013C000D1E7000060060020781B0020CC0600203A
:1013D0007047002204E00021491CD829FCD3521C8C
:1013E0008242F8D3704700002DE9F04F85B0012408
:1013F000660300200096CDE90104DFF8E4B06946F9
:10140000584600F03BFCA70369465846009700F099
:1014100035FC4FF4004969465846CDF8009000F07D
:101420002DFC69465846009400F028FC4FF0020855
:1014300069465846CDF8008000F020FC0425694636
:101440005846009500F01AFC4FF0080A69465846C5
:10145000CDF800A000F012FC0094224C6946204612
:1014600000F00CFC69462046CDF8008000F006FC38
:1014700069462046009500F001FC69462046CDF8FB
:1014800000A000F0FBFB102000906946584600F0D9
:10149000F5FB154C69462046009500F0EFFB134D17
:1014A00069462846CDF8009000F0E8FB2015009032
:1014B0006946204600F0E2FBA014009069462046F1
:1014C00000F0DCFB69462846009700F0D7FB694630
:1014D0002846009600F0D2FB05B0BDE8F08F000072
:1014E00000080240000002400004024000100240D8
:1014F00038B501218DF8001040F6070101EBC0045A
:1015000001222146684601F055FA0122214668462B
:1015100001F0CEF99DF80000C007F6D038BD10B537
:10152000172000F0D2FC072000F0CFFC062000F0CE
:10153000CCFCBDE81040372000F0C7BC064B0122B0
:101540008240586821B1024310465A6000F0EAB860
:1015500090435860FAE700000C0000202DE9F04F9E
:1015600085B0112001900020694C4FF40055029085
:1015700069460095204600F081FB0122294620465D
:1015800000F059FC6E0069462046009600F076FB9C
:1015900001223146204600F04EFC4FF400496946D6
:1015A0002046CDF8009000F069FB01224946204614
:1015B00000F041FCDFF85CB14FF4807A6946584690
:1015C000CDF800A000F05AFB01225146584600F029
:1015D00032FC641569465846009400F04FFB012226
:1015E0002146584600F027FC670069465846009798
:1015F00000F044FB01223946584600F01CFCA700CD
:1016000069465846009700F039FB01223946584692
:1016100000F011FC4FF4805869465846CDF8008020
:1016200000F02CFB01224146584600F004FC6946BC
:101630005846009500F022FB01222946584600F04A
:10164000FAFB69465846009600F018FB0122314625
:10165000584600F0F0FB69465846CDF8009000F07F
:101660000DFB01224946584600F0E5FB40202A4D7B
:1016700000906946284600F001FB012240212846DF
:1016800000F0D9FB802000906946284600F0F6FA69
:1016900001228021284600F0CEFB69462846CDF87D
:1016A00000A000F0EBFA01225146284600F0C3FBEF
:1016B00069462846009400F0E1FA012221462846B6
:1016C00000F0B9FB154D69462846009400F0D6FAA3
:1016D00001222146284600F0AEFB0220104C039068
:1016E0006946CDF80080204600F0C8FA0022414645
:1016F000204600F0A0FB69462046009700F0BEFAA5
:1017000000223946204600F096FB05B0BDE8F08F78
:1017100000040240000C02400008024000000240A9
:10172000001002402DE9F04F85B0C2074FF4005180
:101730004FF0005408D0264682074FF4804A4FF0FD
:10174000804B03D4574602E00E46F5E75F4642075A
:1017500002D44FF4004C01E04FF0004C020702D4D9
:101760004FF4807501E04FF08075C3064FF40072AE
:101770004FF0007801D4134600E0434699468306B3
:1017800002D44FF4806301E04FF080639E4643062D
:1017900002D44FF4006301E04FF0006304930306AA
:1017A00002D44FF4805301E04FF080530393C305FC
:1017B00000D521460291810501D4514600E05946E9
:1017C0000191410502D44FF4004101E04FF0004186
:1017D0000091010501D4402101E04FF480018B46C6
:1017E000C10401D4802101E04FF400018A46810444
:1017F00002D44FF4807301E04FF08073410401D4B0
:10180000144600E04446010400D542462649D1F87A
:10181000008048EA0608C1F800800E683E430E606A
:101820000E6846EA0C060E6020490E682E430E60D4
:101830000D6845EA09050D600D6845EA0E050D6065
:101840000D68049E35430D600D68039E35430D60A1
:101850000D68029E35430D600D68019E35430D6095
:101860000D68009E35430D6011490D6845EA0B0572
:101870000D600D6845EA0A050D600D681D430D6099
:101880000B6823430B600B498B6913438B610A4A36
:101890006FEA104081B210680840106005B0BDE8E2
:1018A000F04F01F0B7B9000018040240180C0240D4
:1018B00018080240000002400C000020094840685F
:1018C00018B909494888401C48800848007830B158
:1018D0000749B1F90000002801DD401E0880FFF72C
:1018E00031BD0000781B0020380600206D06002066
:1018F0007206002070B5012205211F4800F0D8FFB4
:101900001D4802220621223000F0D2FF1A4C40F678
:10191000FF710E3C94F8300001EB8020208603F02C
:101920005BFE002504E02846FFF7E2FD6D1CEDB2EA
:10193000A07B8542F7D301F061FA0025257365731A
:101940002571A570E57065716586A583E58325849D
:101950006584A571E57225852587E585A585012026
:10196000E073002103F0A8F96585657200F006F8C0
:10197000BDE87040FFF742BC6E06002030B5002184
:10198000134A02230846118051809180D38002EBD4
:101990008004401CA16010F0FF00F8D00C4A103207
:1019A0000020118051809180D38002EB8003401C85
:1019B000996010F0FF00F8D0064D002405EBC4003C
:1019C00002F038FD641C14F0FF04F7D030BD0000B5
:1019D000F0180020A206002010B5124C2068C007A5
:1019E0001FD0062000F071FA03F072FA0120206087
:1019F000062000F075FA20210B4800F017FA30B9E4
:101A0000172000F062FA02F033FA20202060022151
:101A1000064800F00BFA002803D103F0D9F90220A0
:101A2000206010BD143C0140000802400004024048
:101A300010B5124C206880071FD5072000F045FA2A
:101A400003F0C6F902202060072000F049FA2021A7
:101A50000B4800F0EBF930B9172000F036FA02F02D
:101A600007FA202020600121064800F0DFF9002855
:101A700003D103F02DFA0120206010BD143C014079
:101A8000000802400004024070B5114C2068800636
:101A90001DD5172000F019FA02F0EAF92020206085
:101AA000172000F01DFA0B4D0221284600F0BEF968
:101AB00018B903F08DF9022020600121284600F0BA
:101AC000B5F9002803D103F003FA0120206070BDAE
:101AD000143C01400004024010B5172000F000FA49
:101AE000072000F0F2F9062000F0EFF9BDE8104001
:101AF000372000F0F5B900002DE9F04186B001A9CA
:101B000001200325002481E831002020DFF87480C3
:101B100000906946404600F0B1F880200090694688
:101B2000404600F0ABF8102000906946404600F0B7
:101B3000A5F8154F4FF4007669463846009600F038
:101B40009DF84020CDE9000469464046CDE90245B4
:101B500000F094F800222021404600F06CF90122A8
:101B60001021404600F067F901228021404600F034
:101B700062F901223146384600F05DF906B0BDE851
:101B8000F081000000000240000402400F4A10B53E
:101B900092F90110491CCB1701EB136323F0FF03EB
:101BA000C91A92F90230994205D109A003F064F8EC
:101BB0004FF0FF3010BD0C4992F90130C85492F932
:101BC0000100401C5070002010BD0000A00000204B
:101BD0004649464F20627566666572206F7665726B
:101BE000666C6F770A000000671700202DE9F0414E
:101BF0000446876D00F024F9054694F83500002668
:101C0000022806D08020606584F834600120BDE899
:101C1000F0812068016821F01601016020684169A7
:101C200021F080014161206C08B9A06C20B12068CE
:101C3000016821F0080101602068016821F00101BC
:101C400001600BE000F0FCF8401B052806D92020BD
:101C5000606504F8346F03206070D8E7206800687E
:101C6000C007EFD194F85C103F208840B86004F8BA
:101C7000346F012060700020C9E700002DE9F84FA3
:101C8000DFF88091002209F1040A0AF1040B4FF0F9
:101C90000F080BF1040E01260B6896403340B34247
:101CA00071D14C68022C01D0122C11D1D40800EB58
:101CB00084073D6A5407E40E08FA04FC25EA0C0583
:101CC000D1F810C00CFA04FC4CEA050CC7F820C08F
:101CD00007685400032591F804C0A5400CF0030CDC
:101CE000AF430CFA04FC4CEA070CC0F800C04F6884
:101CF000012F05D0022F03D0112F01D0122F11D1A7
:101D00008768D1F80CC0AF430CFA04FC4CEA070C0E
:101D1000C0F808C04768B7430E79C6F3001696406E
:101D20003E434660C668AE438D68A5403543C560F6
:101D30004C68E40060D5344C256845F48045256046
:101D4000246822F0030504F4804400942F4C2E19DB
:101D5000D6F808789407250F08FA05F4A7432C4C09
:101D6000A04201D100241FE02A4CA04201D101244D
:101D70001AE0294CA04201D1022415E0274CA042D0
:101D800002D1032410E037E0254CA04201D1042405
:101D90000AE0244CA04201D1052405E0224CA042D7
:101DA00001D1062400E00724AC403C43C6F80848B3
:101DB000D9F800404D464E689C43F60300D51C43BD
:101DC0002C60DAF8004055464E689C43B60300D5B7
:101DD0001C432C60DBF800405D464E689C43F602D5
:101DE00000D51C432C60DEF8004075464E689C43CD
:101DF000B60200D51C432C60521C102AFFF44BAFD6
:101E0000BDE8F88F003C01404438024000300140FA
:101E1000000002400004024000080240000C0240A2
:101E200000100240001402400018024000690840FF
:101E300000D0012070470AB1816170470904FBE7B7
:101E400001488068704700007009002002488168DE
:101E5000027811448160704770090020094810B56C
:101E6000016841F400710160016841F48071016012
:101E7000032000F061F80F2000F006F800F024F8CD
:101E8000002010BD003C024070B50D4D04464FF4DB
:101E90007A712878B1FBF0F00A490968B1FBF0F0DB
:101EA00000F0CAFC48B9102C07D200222146501E6F
:101EB00000F022F800206C6070BD012070BD0000B1
:101EC000700900207C090020704700F01F020121EA
:101ED00091404009800000F1E020C0F88011704777
:101EE00000F01F02012191404009800000F1E02034
:101EF000C0F8001170470000F0B40E4B1B68C3F32C
:101F00000223C3F10704042C00D904241D1D072D4E
:101F100001D2002300E0DB1E012606FA04F56D1E47
:101F20000D409D409E40761E164045EA0601F0BCDD
:101F300000F0DCBF0CED00E0064A00F0070110687D
:101F40004FF6FF03184040EA0120034908431060A0
:101F5000704700000CED00E00000FA052DE9F843A1
:101F60001748016841F0805101600068DFF8548033
:101F700000F0805001270090C8F84070FFF760FF24
:101F800004464FF47A75104E04E0FFF759FF001B2A
:101F9000A8420DD87068C003F7D5C8F84470FFF7A1
:101FA0004FFF044607E0FFF74BFF001BA84202D992
:101FB0000320BDE8F88370688003F4D50020F8E7BB
:101FC0004038024000000E4200700040F8B5044660
:101FD0000025FFF735FF064694F84100800731D50C
:101FE000002084F840002068016849070BD501688B
:101FF00021F004010160E06BFFF7F8FD18B1606C9F
:1020000040F0040060642068016841F00201016052
:10201000A06C0090334601220221204602F0D7FA3C
:1020200005000FD121680220C860A06C00903346E3
:1020300000222021204602F0CAFA050002D1012028
:1020400084F841002846F8BD2DE9F84F17468B4625
:102050000446FFF7F5FE824694F8400001280ED0B2
:10206000012684F8406094F841004FF000080128F0
:1020700007D0022584F840802846BDE8F88F02206A
:10208000FBE7C4F844804FF0020984F841905346BE
:10209000002220212046009702F099FA0500E9D19C
:1020A00000225946204602F0D5F9DBF8240058B941
:1020B0005346012202212046009702F088FA0500CB
:1020C000D8D12168C1F80C9084F84160D2E710B5EE
:1020D000040015D094F84000012813D0012084F8A2
:1020E00040002068016821F001010160204600F0F5
:1020F00067F80020606484F8410084F8400010BD57
:10210000012010BD022010BDF8B50446FFF798FE6F
:1021100007465CB194F84000012809D0012684F8F4
:10212000406094F84100002520B10BE00120F8BD8B
:102130000220F8BD84F84050204600F042F841F2F9
:102140008830A06420680168A2686FF0FF0321F462
:10215000F85103EB022211430160A06C00903B4652
:1021600000222021204602F032FA08BBE268E16931
:1021700023790A43216A41EA03610A4321680B6813
:102180000D4F3B401A430A60D4E905210A432168F8
:102190004B680A4F3B40278A43EA07431A434A6089
:1021A00021680A6842F001020A60656484F84160AF
:1021B00084F84050F8BD00002FFFFF00FEF8E0FF5C
:1021C000704770472DE9F84F16460F460446FFF753
:1021D00037FE82462068816994F8402000F120058E
:1021E000012A0ED04FF0010884F8408094F8412075
:1021F0004FF00009012A06D0022084F84090BDE883
:10220000F88F0220FBE7C4F84490AFB3222284F891
:1022100041200269521CA2630269521C6263276357
:10222000426922F0406242F080624261206881612E
:102230000CE00621204602F0CAF9D0B92A78206BBA
:10224000411C21630270A06B401EA063A06B53462B
:102250004FF0010200960028EBD14FF0020120461A
:1022600002F0B5F928B921680220C8602046FFF7BE
:10227000ADFE84F84180C0E7FFE7606C40F00800E5
:1022800060640120B9E72DE9F84F16460F46044671
:10229000FFF7D6FD8246206894F8401000F1200533
:1022A00001290ED04FF0010884F8408094F84110C5
:1022B0004FF00009012906D0022084F84090BDE8C3
:1022C000F88F0220FBE7C4F844908FB3122184F802
:1022D00041100169491CE1620169491CA162676200
:1022E000416921F0406141610CE00421204602F087
:1022F0006EF9D0B9606A411C616200782870E06AAA
:10230000401EE062E06A53464FF00102009600284A
:10231000EBD14FF00201204602F059F928B92168AB
:102320000220C8602046FFF751FE84F84180C4E7D0
:10233000FFE7606C40F0080060640120BDE700002A
:102340002DE9F0470D46040065D0DFF81491D9F867
:102350000000EFB200F00F00A84207D289F8007029
:10236000D9F8000000F00F00A84254D120683D4E7B
:10237000810712D5400703D5306840F4E050306043
:102380002078000703D5306840F460403060306842
:10239000A16820F0F000084330602078C0072DD0FD
:1023A000304960680839012812D0022813D0032868
:1023B00011D00968890700292DDA316821F003015D
:1023C00001433160FFF73CFD804641F2883A0EE060
:1023D00009688903EFE709688901ECE7FFF730FD39
:1023E000A0EB0801514502D90320BDE8F087306811
:1023F000616800F00C00B0EB810FEFD1D9F800104C
:10240000484601F00F01A94207D90770006800F0A3
:102410000F00A84201D00120E7E72078400705D54A
:102420003068E16820F4E05008433060207800070D
:1024300006D53068216920F4604040EAC100306070
:1024400000F016F83168084AC1F30311515CC84026
:10245000064908600F20FFF717FD0020C5E70000C0
:10246000003C024008380240617300087C090020EB
:10247000224810B5006810F00C01214815D0214BFE
:10248000042911D01D4C241F08290FD00C290CD170
:10249000216801F03F022168490221D52068C0F37C
:1024A0008810A0FB030120E0184610BD216801F050
:1024B0003F022168490205D52068C0F38810A0FBBF
:1024C000030104E02168C1F38811A1FB000100238E
:1024D000FDF7FCFE2168C1F30141491C49000AE0F7
:1024E0002168C1F38811A1FB00010023FDF7EEFE76
:1024F0002168C1F30271B0FBF1F010BD0838024051
:102500000024F40040787D012DE9F84F044600785E
:10251000C44EC007A6F104054ED0301D0168C1F3BA
:10252000810101290FD00168C1F38101022902D183
:102530003168490207D40068C0F38100032809D13B
:102540003068400206D52868800335D560680028C9
:102550006FD031E06068B0F5803F10D0B0F5A02FAB
:10256000286810D020F480302860286820F480206B
:1025700028606068A0B1FFF763FC07460CE028689C
:1025800040F48030F4E740F480202860F7E7FFF75C
:1025900057FCC01B642875D828688003F7D50BE06A
:1025A000FFF74EFC074604E0FFF74AFCC01B642817
:1025B000F1D828688003F7D42078DFF86CA2800770
:1025C0004FF0000B44D59748001D016811F00C0F27
:1025D0000FD00168C1F38101022902D1316849029B
:1025E00007D50068C0F38100032809D13068400294
:1025F00006D42868800714D5E068012819D110E0B6
:10260000E068B8B10120CAF80000FFF719FC0746DE
:1026100004E0FFF715FCC01B0228BCD8286880071F
:10262000F7D52868216920F0F80040EAC100286049
:102630000EE0F4E0CAF800B0FFF702FC074604E041
:10264000FFF7FEFBC01B02281CD828688007F7D4C0
:102650002078000726D5DFF8CC817448616908F13D
:10266000700881B101210160FFF7EAFB074604E031
:10267000FFF7E6FBC01B022804D8D8F8000080074B
:10268000F6D50FE088E0C0F800B0FFF7D9FB0746A9
:1026900004E0FFF7D5FBC01B02287DD8D8F8000066
:1026A0008007F6D42078400769D55E484FF00009CE
:1026B0003C300068C0000BD45A483C30016841F0FF
:1026C0008051016000684FF0010900F080500090D7
:1026D00057480168C90511D40168804641F48071EA
:1026E0000160FFF7ADFB074604E0FFF7A9FBC01B45
:1026F000022851D8D8F80000C005F6D5494FA06887
:102700006C3701280FD00528386810D020F0010060
:102710003860386820F004003860A068B8B1FFF76E
:102720008FFB80460FE0386840F00100F4E740F08E
:1027300004003860F7E7FFF783FBA0EB080141F2E4
:102740008830814263D838688007F4D50EE0FFF7FF
:1027500077FB804607E0FFF773FBA0EB080141F22F
:102760008830814253D838688007F4D4B9F1000F1B
:1027700005D02C483C30016821F080510160A069EF
:10278000B0B32849091D0968C1F38101022946D067
:102790000228CAF860B000E039E003D0FFF750FB30
:1027A000044637E0FFF74CFB074604E0FFF748FB21
:1027B000C01B02282BD828688001F7D4F4E9070150
:1027C0000843E1681B4A490802EB0141A26841EA5B
:1027D00082110843217C40EA0160217D40EA0170BA
:1027E00030600120CAF86000FFF72AFB044605E0CC
:1027F00013E0FFF725FB001B022808D8286880019A
:10280000F7D50AE0FFF71CFB001B022802D90320C2
:10281000BDE8F88F28688001F4D40020F8E7012093
:10282000F6E700000438024000004742800E4742AD
:10283000007000400000FFFF10B5401EB0F1807F27
:1028400001D3012010BD4FF0E02460610F2160171B
:1028500000F04CFB0020A06107202061002010BD8B
:1028600010B5040003D094F8390010B107E001203E
:1028700010BD002084F83800204600F00CF802203B
:1028800084F83900211D206802F0F6FD012084F84B
:102890003900002010BD70470168CA6842F001028B
:1028A000CA600068016841F00101016000207047C2
:1028B0002DE9F04115460E4607464FF4805822E0B8
:1028C000464501D32C4610E0042D01D9042400E034
:1028D0002C46F00703D1B00705D5E00701D001244D
:1028E00003E0022401E0032CF9D0FEF718FE224693
:1028F0003146384601F004FFFFF7EEF8281B85B299
:102900003019274486B2002DDAD120211048FFF774
:102910008DFA104C30B91720FFF7D7FA01F0A8FA5A
:10292000202020600C4D02212846FFF77FFA18B9BD
:1029300002F04EFA0220206001212846FFF776FAC5
:10294000002803D102F0C4FA01202060BDE8F08124
:1029500000080240143C0140000402402DE9F0410F
:1029600015460E4607464FF480581EE0464501D3F3
:102970002C4610E0042D01D9042400E02C46F00779
:1029800003D1B00705D5E00701D0012403E00224FC
:1029900001E0032CF9D022463146384601F0B0FE62
:1029A000281B85B23019274486B2002DDED1BDE840
:1029B000F08100002DE9F04115460E4607464FF420
:1029C000805822E0464501D32C4610E0042D01D961
:1029D000042400E02C46F00703D1B00705D5E0073A
:1029E00001D0012403E0022401E0032CF9D0FEF71A
:1029F00096FD22463146384602F024F9FFF76CF87E
:102A0000281B85B23019274486B2002DDAD1202147
:102A10001048FFF70BFA104C30B91720FFF755FAA2
:102A200001F026FA202020600C4D02212846FFF7F5
:102A3000FDF918B902F0CCF90220206001212846E6
:102A4000FFF7F4F9002803D102F042FA01202060D8
:102A5000BDE8F08100080240143C0140000402403F
:102A60002DE9F04115460E4607464FF480581EE00A
:102A7000464501D32C4610E0042D01D9042400E082
:102A80002C46F00703D1B00705D5E00701D001249B
:102A900003E0022401E0032CF9D0224631463846F7
:102AA00002F0D0F8281B85B23019274486B2002DD9
:102AB000DED1BDE8F081000010B502224FF40871AC
:102AC0000248FFF74BFF0148008810BDAA00002014
:102AD000F8B501F0A1FD002593244FF40176ADF87F
:102AE0000040022231466846FFF764FFADF800500F
:102AF000022231466846FFF7DBFEBDF8000093284E
:102B0000EDD140F20111542001F058FF01215C2069
:102B100001F054FF582001F00BFE00F0EDF800F03A
:102B200011F90720FFF7DCF90620FFF7D9F902F0C9
:102B30007BFC02F09BFC00F0B9F8002000F006F8E6
:102B40001720FFF7CDF90120F8BD000038B5044685
:102B50004FF40175022229466846FFF7A9FEBDF829
:102B600000202240ADF80020FEF7D9FC02222946C1
:102B70006846FFF71FFF022229460348FFF798FE29
:102B8000FEF7AAFF38BD0000AC00002070B5194860
:102B90000078002823D11848007800281FD0174B50
:102BA000184800219D8B0268154C1748012D17D03D
:102BB0004578012D13D1526A456843F60956521BD8
:102BC000124D6A434FF47A7592FBF5F542887243D1
:102BD00005EB82125A60626041804160417070BDB5
:102BE000596099836160A183418001214170516ADC
:102BF000416070BD6606002069060020781B002039
:102C0000BC1B00202C1600203806002040420F007C
:102C1000FEE700002DE9F041234E074600252A4635
:102C200010213046FFF707F900240022202130460A
:102C3000FFF701F917F4000F01D0012200E0002294
:102C400080213046FFF7F7F87F000122202130462F
:102C5000FFF7F1F8641C182CE7D30122102130464D
:102C6000FFF7E9F800240127002220213046FFF772
:102C7000E2F840213046FFF7D9F820B9C4F10F013E
:102C800007FA01F00543012220213046FFF7D3F86F
:102C9000641C102CE8D3002220213046FFF7CBF82B
:102CA000A8B2BDE8F0810000000002400F4800B566
:102CB000026887B0002142F004020260006800F060
:102CC00004000590202000900948CDE901016946E3
:102CD0000848FEF7D3FF012207211720FFF70CF960
:102CE0001720FFF7F2F807B000BD000030380240AF
:102CF00000002110000802400F4800B5026887B0AC
:102D0000002142F002020260006800F0020005901B
:102D1000022000900948CDE9010169460848FEF704
:102D2000ADFF072101220846FFF7E6F80720FFF76D
:102D3000CCF807B000BD0000303802400000211080
:102D4000000402400F4800B5026887B0002142F03D
:102D500002020260006800F002000590012000906D
:102D60000948CDE9010169460848FEF787FF0122BD
:102D700003210620FFF7C0F80620FFF7A6F807B0EA
:102D800000BD000030380240000021100004024065
:102D900010B586B001200190002002900420164C4E
:102DA000009069462046FEF769FFA06940F00400E4
:102DB000A0611020009069462046FEF75FFFA069E1
:102DC00040F01000A0612020009069462046FEF7E8
:102DD00055FFA06940F02000A061082000906946DE
:102DE0002046FEF74BFF4020009069462046FEF744
:102DF00045FF06B010BD000000100240F8B51A4DA6
:102E00002220002468814FF4807028810001A8816D
:102E1000E88116480A2140F60F060480448081802C
:102E20003438012204804480818011482C6131466D
:102E30000470AC616C61EC61EC708DF80040684628
:102E4000FFF736FD9DF80000012220F002008DF80A
:102E5000000031466846FFF7ADFDAC706C702C7019
:102E6000AC712C716C71F8BDAC060020441B0020C5
:102E70004406002010B5FEF73DFDFEF7DDF90449DC
:102E8000002001224880486048700A7010BD000090
:102E90003806002001210320FEF750FB00226423A6
:102EA0001146104600F012FC00210320FEF746FBFD
:102EB000002264231146104600F008FCEAE7FEE712
:102EC00001210220FEF73AFB00226423114610463E
:102ED00000F0FCFB00210220FEF730FB00226423FF
:102EE0001146104600F0F2FBEAE770470907090EA9
:102EF000002806DA00F00F0000F1E02080F8141D31
:102F0000704700F1E02080F800147047F0B58A891E
:102F100005004FF00000C2F3032700D01020072F58
:102F200003D001234FF4187C31E00020F0BD082FBE
:102F300013D00A6903EB430402EB440422881F2ADE
:102F400028D00DDCA2F10306092E19D2DFE806F025
:102F5000223118223131181822000C69A41DEDE726
:102F6000624517D006DC202A23D02E2A12D02F2A21
:102F700006D11EE0A2F50076623E1AD0012E18D0CE
:102F8000AB4202D26288104480B25B1C9BB2AB425F
:102F9000CDD9F0BD4FF6F0760F303040AB42F4D2D1
:102FA0000B2A01D0624502D16288104480B21030F1
:102FB000EAE74FF6E0761F303040AB42E5D2A2F5AB
:102FC0000076623EDED0A2F50076633EDAD0203095
:102FD000DAE710B50446FEF70BF903E00189A142D8
:102FE00002D040680028F9D110BD70472DE9F041AA
:102FF000054616480E461446807808B1122009E0AE
:103000002878012809D0022807D0032805D00428F1
:1030100003D001201070BDE8F081FDF705F90746E7
:10302000304600F049FE0F2804D93846FDF700F974
:103030000B2008E0314605F10F0000F02FFE384666
:10304000FDF7F6F800202070E5E700008409002075
:1030500070B586B000F0B0F8484B00245C639C70FB
:10306000DC701C72DC71DC601C629C615C615C70F9
:103070009C7103F11C012046401CC0B201F8014BB9
:103080000428F9D31C715C71DC624FF4FD613C488B
:103090005C6200F089FD3A488021803800F084FDB0
:1030A0003748002200F15C013F25416180F84C5017
:1030B00080F84D40521CD2B25C305C31152AF4D3FA
:1030C000446180F84C5080F84D402D481C63986254
:1030D0004FF4A071A0F5B86000F066FD2948002209
:1030E00000F1200100F8044B521C40F80B1B92B277
:1030F00000F8015B203100F8104B092AF2D304706C
:103100004460C57304741F48186100F029FD00F085
:1031100055FD00F075FD80261B48CDE901064FF6F0
:10312000FF70174A009003251F23843A0021174897
:10313000CDE9034500F054F905AA15A11F2000F0C0
:103140009FF91748CDE901064FF6FE700E4A009030
:103150001E23121F00211348CDE9034500F040F95A
:1031600005AA11A11E2000F08BF900F051FB00F020
:1031700029F806B0BDE87040FFF737BF840900208A
:10318000C0210020001C0020401F0020AD3D000891
:1031900075432F4F532D49492049646C6500000049
:1031A000401D0020C93D000875432F4F532D49494C
:1031B00020537461740000000149002008807047AA
:1031C000800900207047000070B5144CE079012898
:1031D00022D1FDF729F80546A07820B1401E10F055
:1031E000FF00A07013D1E07888B900F047FD607946
:1031F000217988420BD00A4951F82010E162886B8E
:10320000401C8863E068401CE060FDF729F8284610
:10321000BDE87040FDF70CB870BD000084090020C7
:103220004021002070B505460D48007808B1002007
:1032300070BDFCF7F9FF0B490C680CB162680A60BD
:10324000FCF7F6FF54B103202070258100203F21B8
:103250006060E1732074204600F076FC204670BD6B
:1032600086090020940900202DE9F04705460078E2
:1032700089461446032801D0012008E0264800783A
:1032800008B1022003E02548007818B10D20107025
:10329000BDE8F087FCF7C8FF06462889002730B153
:1032A000401E28813046FCF7C3FF2770F0E7DFF8A7
:1032B0007080D8F8000010F8301F41F00101017053
:1032C000477020F8029C284600F01AFC3046FCF7B4
:1032D000AFFF00F0AFFCFCF7A7FF0646D8F80000F0
:1032E00090F8311031B1022906D0294600F0E4FBF4
:1032F0000A2002E0277001E00E202070D8F80000BC
:1033000080F8307080F8317040F81C7F476030469C
:10331000BDE8F047FCF78CBF860900208709002034
:10332000A809002070B504460078032801D00120C8
:1033300070BDFCF779FF0546A07A58B10023012241
:103340001946204600F07EFB2846FCF771FF00F08E
:1033500071FC09E020894FF6FF71884206D2401CBB
:1033600020812846FCF764FF002070BD2846FCF74A
:103370005FFF322070BD000010B5094CE0790028D5
:103380000CD100F07BFC60790649207151F82000D7
:10339000E0626062BDE81040FCF74DBF10BD000068
:1033A000840900204021002010B5022000F060F9BF
:1033B000FCF73AFF084C00212162FCF739FF64203A
:1033C00000F056F9FCF730FF216A6161012161705C
:1033D000BDE81040FCF72CBF8409002070470000B6
:1033E0002DE9FF4F83B01C46DDE91386DDE9119717
:1033F00092468B46FCF718FF1D49097829B1FCF766
:1034000017FF3C2007B0BDE8F08F1A4D55F8241087
:1034100019B1FCF70DFF2820F4E7012145F824102D
:10342000FCF706FF32463946484600F015FD3346A4
:1034300052465946039800F097F80097CDE9018667
:1034400001464A462046109B00F040FC060008D08A
:10345000FCF7EAFE002145F82410FCF7E9FE3046AF
:10346000D0E7054800780128F9D100F0E3FBF6E742
:1034700086090020402100208B09002070477047FA
:103480002DE9F0410546194888461446007818B1E0
:1034900012201070BDE8F081FCF7C6FE0646FF2D35
:1034A00003D11348006890F832501248432750F86F
:1034B00025505DB1012D09D0404600F0FDFB0F28DD
:1034C00009D93046FCF7B4FE41200DE03046FCF748
:1034D000AFFE2770DEE7414605F14C0000F0DEFB51
:1034E0003046FCF7A5FE00202070D3E786090020B7
:1034F000A809002040210020704700002DE9F0417C
:103500000446002008600E464860FCF78DFEFF2C44
:1035100003D11349096891F83240124951F8241037
:1035200051B1012908D00A7CD2070AD0D1E902574B
:103530000024FCF77DFE09E0FCF77AFE4320BDE89D
:10354000F081FCF775FE4520F9E7641C01CD0028E9
:10355000FBD0A0003060381B800070600020EEE7D8
:10356000A8090020402100204FF080731360131F32
:103570001860A2F108006FF001030360001F4FF014
:1035800012330360001F4FF003330360001F4FF03E
:1035900002330360001F5B100360001F0160001F07
:1035A0004FF011310160001F19010160001F4FF041
:1035B00009310160001FD9000160001F4FF0073181
:1035C0000160001F4FF006310160001F4FF0053110
:1035D00001609900001F01607047000070B504464B
:1035E000FCF722FE01461D48FF2C006805D090F82C
:1035F0003200A04204D1012503E090F83240FAE7FE
:103600000025174850F8240058B101280ED090F832
:103610003420144C90F83560A35CB343A3540AD013
:103620000FE00846FCF704FE482070BD0846FCF792
:10363000FFFD432070BD0C4A90F836401378A34339
:10364000137010F8302F42F0080202700846FCF7A1
:10365000EFFD0DB100F0EEFA002070BDA8090020CA
:1036600040210020A00900208A09002070470000A6
:1036700070B504461148007800281DD1002C1BD0DD
:10368000FCF7D2FD03460E480E4D016891F8342038
:1036900091F83560A85CB043A85405D10A4891F868
:1036A00036500278AA430270CC851846FCF7C0FD5C
:1036B000BDE8704000F0BEBA70BD00008609002071
:1036C000A8090020A00900208A09002070B5164C26
:1036D00024780CB1552070BD4FF47A746343B3FB6A
:1036E000F4F34FF4616410FB04F0C1EB011100EB43
:1036F0008100104400EB4001C1EBC01003EBC0009F
:10370000040C80B2FFF7B4FF4FF4004507E02846F1
:10371000FFF7AEFF2846FFF7ABFF641EA4B2002CF4
:10372000F5D1002070BD00008609002010B50446C8
:10373000FCF77AFD02490C60BDE81040FCF778BD4B
:10374000B80900202DE9F04100F04EF8FCF76CFDBF
:10375000244D696B491C6963FCF76AFDE87901280F
:103760003DD1687A0126002720B1012837D00228F0
:1037700002D06F722C6B2EE06E72FBE7FCF754FDEB
:10378000E18D29B3491E0904090CE18520D194F883
:10379000301011F0370F06D021F0370184F83010C7
:1037A00084F8316001E084F8317094F83010090732
:1037B0000ED494F83610AA790A4B1143A97194F8E3
:1037C00034101C3394F835C05A5C42EA0C025A5447
:1037D0006469FCF72DFD94F832001F28CED1BDE8B6
:1037E000F08100008409002005490888401C80B24F
:1037F0000880642803D30020088000F003B87047D5
:103800008009002001480068FFF78CBDD409002022
:1038100070B588B04FF450712D4800F0C5F94021C3
:103820002C4800F0C1F92A480022642300F1340139
:1038300014463F2500F8313B521C00F8254992B24E
:1038400040F8141B343100F8015B0F2A00F8134BC9
:10385000F0D3037080F83140C46080F8205080F8C5
:1038600021401D481E4904601C4804801020088027
:103870001C49174808600120FFF7D4FC1A4D286046
:103880000020FFF7CFFC194E05AA19A13060286867
:10389000FFF7ACFB05AA19A13068FFF7A7FB802151
:1038A00002910320CDE90340174A4FF6FD70CDE9A0
:1038B00000021D2302F5FE7200211448FFF790FD5F
:1038C00006AA13A11D20FFF7DBFD08B070BD0000A4
:1038D000482B002088300020CC090020CA09002095
:1038E000C8090020D8090020D0090020D4090020F0
:1038F0004F532D546D724C6F636B00004F532D541A
:103900006D72536967000000882E0020813900081D
:1039100075432F4F532D494920546D72000000000C
:10392000032280F831200F4A0129126814D08169DE
:1039300091B111444161017D0B4A01F0070102EB95
:10394000C10100230A68086042B1C26010618A8820
:10395000521C8A8003617047C169EAE70122C36093
:10396000F7E70000CC0900208830002008B50348A4
:103970006A4600210068FFF777FC08BDD0090020E7
:1039800008B5DFF86880DFF868901A4E6A460021B3
:10399000D8F80000FFF768FCFFF7E8FF3068401C2C
:1039A000306000F00700022759F8304013E06069EA
:1039B0003168E56888420DD1626812B12046A1687D
:1039C0009047204600F018F894F83000022807D0FD
:1039D00084F831702C46002CE9D100F02DF8D5E7A1
:1039E00001212046FFF79CFFF4E70000D4090020E6
:1039F00088300020CC09002010B5017D0D4A01F06F
:103A0000070102EBC10100240B68C268834203D1A5
:103A10000A602AB1146103E00369DA6002B113613C
:103A2000012280F83120C46004618888401E8880AB
:103A300010BD00008830002001480068FFF772BC0C
:103A4000D0090020F0B50F460546807A1749085C7A
:103A50002C18E47A095D01EBC001CEB2144951F88B
:103A600026400021E185676294F83010914384F884
:103A7000301084F8313009070BD40E4994F8362001
:103A80008B791A438A711C3194F835300A5C1A43D9
:103A90000A542946204600F00FF8216A19B1204641
:103AA00000F01AF8E5613046F0BD000071730008BF
:103AB000402100208409002010B590F8342090F8AF
:103AC00035408B18DA7AA243DA7204D18A7A90F8F8
:103AD000360082438A7210BD70B510F8345F847866
:103AE0004678086809E04319DA7AB243DA7202D1FB
:103AF000827AA243827251F8040F0028F3D170BD7C
:103B000030B5104C00F10B02616A41F81C0F0B7EBE
:103B1000497E9D5C0D439D54616A827A91F83630EE
:103B20001A43827291F8340004F11C0391F8355065
:103B30001A5CAA431A5404D191F83610A07988432C
:103B4000A07130BD840900200022827211460B3022
:103B5000491CC9B200F8012B0429F9D370470000B1
:103B600010B58C210E4800F01FF80D48002200F11E
:103B70001C0113463F2400F8043B521C40F8061B6E
:103B800092B200F8014B1C3100F8113B042AF2D329
:103B90000370436084720349C3720148086010BD1A
:103BA000A8290020BC090020002203E0491E00F8DB
:103BB000012B89B20029F9D17047000070B5B421FA
:103BC0000D48FFF7F1FF0C4800210B4604463F2546
:103BD00001EBC10204EB8202243242600575437599
:103BE000491C89B224300429F2D34360057543751A
:103BF0000248046070BD0000342A0020C009002083
:103C000010B560210948FFF7CFFF0848002200F1F6
:103C1000180140F8181B521C92B21831032AF8D32D
:103C20000021016002490148086010BDE82A002017
:103C3000C409002070B5FCF7F7FA0E4C0546A078D1
:103C400098B9E07888B900F019F86079217988424C
:103C50000BD0094951F82010E162886B401C886341
:103C6000E068401CE060FCF7F6FA2846BDE87040CA
:103C7000FCF7DEBA84090020402100200649054AED
:103C800001F11C038879105C1B5CD25C02EBC00064
:103C9000487170477173000884090020002204E015
:103CA000521C00F8013BD2B2491C0B78002BF7D113
:103CB00000210170104670470146002002E0401CC0
:103CC000C0B2491C0A78002AF9D170472DE9F05F8B
:103CD0009846DDE90ABA91460D460646FCF7A4FA75
:103CE000304FBC6A002C58D061691834B962FCF7B7
:103CF0009FFA44F8185CA676002525766576E5825D
:103D000044F80CBC44E905A90C9824F8080C24F8E4
:103D1000068CF008E5772077012306F0070103FA07
:103D200000F2E176A27703FA01F262776560A5609E
:103D30002561E5602562A5626562E5623F20256335
:103D400084F8340084F83550183C2046FFF746FBD1
:103D50002046FFF793FBFCF767FA0146124840F84C
:103D60002640386BC4E9050500B184613C6394F8D2
:103D70003600BA791043B8710A4A14F8340F1C326D
:103D80006478135C23431354387A401C3872084615
:103D9000FCF74EFA0020BDE8F09FFCF749FA4220FC
:103DA000F9E700008409002040210020054CFCF7C1
:103DB0003BFA216A491C2162FCF73AFAFFF75FFBE4
:103DC000F5E7000084090020144C02E0C820FFF74A
:103DD0004FFC60780028F9D0642160690025B0FBB1
:103DE000F1F0606118B92570FF20FFF7F7FBFCF7D1
:103DF0001BFA216A2562A161FCF71AFAD4E90510C1
:103E0000B0FBF1F0C0F164002070FFF775FB00F02B
:103E100007F86420FFF72CFCE9E700008409002084
:103E20007CB50C4D002469462046FFF767FB58B966
:103E300055F8241041B1012906D0D1E9020200EB66
:103E40008200486401988864641CE4B21F2CEAD99B
:103E50007CBD000040210020D30707D0920705D584
:103E60000022002902D004C0491EFAE77047000072
:103E70002DE9F0413048007800285BD0FEF71CFEA9
:103E800004462E4F2E4D2F4E400525D52E48007846
:103E900028B12E48007810B12D4900200880308DBF
:103EA00008B1401E3085FEF771FE2A4901200870D6
:103EB0002948007810B100F06BF80DE00122398834
:103EC0002648FEF74BFD3888298801220844401E09
:103ED00081B22248FEF742FD200503D5288808B9A3
:103EE000FEF754FE7088012801D1FCF70FFE1C4834
:103EF0001C4C007830B16088012801D0222801D103
:103F000000F032F8FEF7D8FD400513D5708D012280
:103F1000401C7085608539881048FEF71FFD388881
:103F20002988BDE8F0410844401E81B201220B48B7
:103F3000FEF714BDBDE8F08169060020940600205C
:103F40008E060020781B00206706002066060020F1
:103F5000740600206406002062060020700600201F
:103F600063060020BC1B002010B50648FCF740FE8D
:103F70000548028805480188BDE810400148FEF761
:103F80006FBD0000AC1800208C06002096060020B3
:103F9000064810B50288064801880648FEF7DEFC90
:103FA000BDE810400348FCF747BF00008E06002024
:103FB000940600206818002000280CD000290AD0A0
:103FC000234AD0821378002BD38A05D01844D0829C
:103FD000D0890844D08170470344D382D3891944DF
:103FE000D181B2F90E104FF47A7358430029B2F917
:103FF0000E1005DD90FBF1F081B2D089401E05E086
:10400000494290FBF1F081B2D089401CD080002061
:10401000D081D082C9B10F48C162416941F001012C
:104020004161016841F001010160416C41F40041CE
:1040300041640949602008704FF0E0214FF00070A2
:10404000C1F8000101201070704700F007B80000AF
:10405000740000200000014019E400E00A48416CAF
:1040600021F400414164016821F001010160074928
:104070000020C880C8810870C8824FF0E0214FF04E
:104080000070C1F8800170470000014074000020FA
:1040900070B5344C0025E0B3D9B3656201222271BA
:1040A0002083637833B1228B10442083208A084414
:1040B000208270BD238B18442083208A08442082EC
:1040C000B4F910000028208B4FF47A7100FB01F046
:1040D000B4F9101005DD90FBF1F0218A80B2491E81
:1040E00005E0494290FBF1F0218A80B2491C218110
:1040F000216AB4F910301944216225822583B8B1B0
:104100004FF08041C862486940F00100486108688A
:1041100000E011E040F001000860134960200870E1
:104120004FF0E0214FF08050C1F80001627070BD87
:10413000BDE8704000F028B8606A401C6062606AA8
:10414000B0F5FA7FF3D920790128F0D1216A07A0D0
:1041500000F092FDA16A08A000F08EFDA562256224
:10416000257170BD740000201CE400E053756D3DA6
:10417000256C640A0000000050756C734E756D3D2F
:10418000256C640A000000004FF08040016821F0B7
:1041900001010160064900200881088248700883F7
:1041A0004FF0E0214FF08050C1F8800170470000CF
:1041B00074000020002841D000293FD0214A5083BC
:1041C0009378002B538B18445083508A08445082B4
:1041D00034D1B2F912000028508B4FF47A7100FBF1
:1041E00001F0B2F9121005DD90FBF1F0518A80B2B6
:1041F000491E05E0494290FBF1F0518A80B2491C0A
:104200005181002151835182C8B10F4908600E4885
:104210001838016841F0010101600B482C38016831
:1042200041F0010101600949602008704FF0E02170
:104230004FF00050C1F8000101209070704700F06D
:1042400007B80000740000202C0400401DE400E0CA
:104250000848016821F001010160074900204881F8
:104260004882887048834FF0E0214FF00050C1F839
:10427000800170470004004074000020002841D0F5
:1042800000293FD0214A9083D378002B938B184488
:104290009083908A0844908234D1B2F914000028A7
:1042A000908B4FF47A7100FB01F0B2F9141005DD28
:1042B00090FBF1F0918A80B2491E05E0494290FBE3
:1042C000F1F0918A80B2491C918100219182918301
:1042D000C8B10F4908600E481838016841F0010163
:1042E00001600B482C38016841F001010160094967
:1042F000602008704FF0E0214FF08040C1F80001CD
:104300000120D070704700F007B800007400002052
:104310002C0800401EE400E00848016821F001017B
:1043200001600749002088818882C87088834FF027
:10433000E0214FF08040C1F8800170470008004044
:104340007400002030B53648016841F480310160C6
:10435000816841F400318160416921F480714161DB
:10436000304859218162016841F080010160C168D3
:1043700041F00101C1602C48016841F480310160C5
:10438000294908310A6842F400320A60264A143288
:10439000136823F4807313602C2403059C621D684A
:1043A00045F080051D60DD6845F00105DD600368AE
:1043B00023F440730360036843F4807303600B6865
:1043C00043F400730B60136823F010031360174B62
:1043D0001C60164B283B1D6845F080051D60134B83
:1043E0001C3B1D6845F001051D60036843F48053C4
:1043F0000360086840F400500860106820F0400036
:1044000010600B4804600A482838016841F08001B8
:10441000016007481C38016841F00101016030BDAE
:104420000000024000000140000402402804004057
:1044300028080040064B10B55A88DC88511C89B208
:104440008C4200D1002103EB82029060598010BDA4
:1044500000190020F0B54B6A4FF040652BB1AA421D
:1044600003D08B6A04685B1E23618B69002B5DD0CF
:104470000C6A7CB304688B68E361CB69C3B1D1E992
:104480000B4634434F6A4E6B3E4334438E8A44EAB4
:1044900086440E6934430E6A3443CE6834431C4369
:1044A0008B691C430B687DE0006849688161F0BD41
:1044B000D1E90B3423434D6A4C6B2C4323438C8A44
:1044C00043EA84430C6923430C6A23438C690968DB
:1044D000234354E0FFE7CC69BCB1D1E90B673E430D
:1044E000D1F824C04F6B47EA0C073E438F8A46EA57
:1044F0008746CF683E4326431E430B681E4303682E
:1045000016435E61AA42CFD1F0BDD1E90B452C43E1
:104510004E6A4D6B006835432C438D8A096844EA26
:1045200085441C430C4314434461F0BD0B6A5BB3E8
:1045300004688B68E361CB6993B1D1E90B463443DE
:104540004F6A4E6B3E4334438E8A44EA86440E697A
:1045500034430E6A3443CE6834431C438B6921E0F4
:10456000D1E90B3423434D6A4C6B2C4323438C8A93
:1045700043EA84430C6923430C6A89692343006836
:104580000B4313434361F0BDCB6983B1D1E90B46C3
:1045900034434F6A4E6B3E4334438E8A44EA86442A
:1045A000CE6834431C43036814435C61AAE74B6A3A
:1045B000002BE8D0D1E90B452C434D6B898A1D4374
:1045C0002C43006844EA814111434161F0BD2DE96B
:1045D000F0411E46174688460546069C11E0601CC1
:1045E0000FD024B1FDF72CFC801BA04209D9042078
:1045F00085F84100686C40F0010068640120BDE866
:10460000F0812868806810EA080000D00120B842D4
:10461000E5D10020F3E70000F0B585B04FF400606D
:1046200002240025032609278DE8F1006946184871
:10463000FDF724FB08208DE8F10069461548FDF7D9
:104640001DFB4FF4F0608DE871000A20049069466C
:104650001148FDF713FB124C104E20462660FDF763
:1046600036FD0120C4E900602020A0601020E06039
:104670000B2020614FF4E060C4E905058020C4E907
:1046800007052046FDF740FD00F00CF805B0F0BD31
:1046900000080240000C024000100240001000A080
:1046A000E015002030B58FB000203821CDE9001092
:1046B0000E904FF480710A90CDE905010D9008909D
:1046C0000901079009900B9041F2883503910C90F5
:1046D0002A4669460848FDF7B7FC084C30B92A4617
:1046E0000EA90548FDF7CFFD002803D0A06940F4CE
:1046F0000010A0610FB030BDE01500200010024096
:1047000070B515460C460646FCF709FFB4F5805F08
:1047100005D32A462146304600F040F804E0EAB2CC
:104720002146304600F0ECF8BDE87040FDF7D4B902
:1047300030B58FB00B22CDE9002004200A9006206E
:104740000590C00106908000079000214FF4805032
:1047500003900E914FF040700D91CDE908100B9130
:1047600041F288350C912A4669460A48FDF76CFCEF
:10477000094C28B92A460EA90648FDF723FD30B199
:10478000A06940F40010A06100200FB030BD0E9869
:10479000FBE70000E0150020001002402DE9F74F74
:1047A00092B000250F9553A010950095174600680C
:1047B000119041EA074010904FF0004000904FF4F4
:1047C0004070CDE90650800008904FF4805004906E
:1047D0004FF040700E95CDE909504FF004080C954C
:1047E0004FF002094FF44376CDF82C800D95CDE9BA
:1047F000019641F2883201A93F48FDF725FC3F4C64
:1048000000286FD141F2883211A93B48FDF73BFDEA
:10481000002867D14FF0060BB246CDF818B00B2038
:10482000CDF82C80CDE9010A41F28836324601A943
:104830003148FDF709FC002854D132460FA92E4813
:10484000FDF7C0FCF0BB9DF83F000006EED44FF42E
:104850004270CDE901900695A9464546324601A928
:104860002548CDF82C80FDF7EFFB58BB324610A948
:104870002148FDF708FD28BB324601A91E48CDF8A6
:1048800008A00B95FDF7E0FBE0B9324669461A48EF
:10489000FDF7F9FCB0B9CDF818B00B200B950190DD
:1048A000324601A91448FDF7CFFB58B932460FA98B
:1048B0001148FDF787FC28B99DF83C00C007EFD0F0
:1048C000324600E00EE001A90B48CDF808900B97A6
:1048D000FDF7BAFB30B9324607481299FDF772FC72
:1048E000002803D0A06940F40010A06115B0BDE815
:1048F000F08F000000000040E01500200010024092
:104900002DE9F041164690B041EA0641804641F05B
:10491000404100204FF4407700910690B900CDE966
:1049200007714FF48051049139040E90CDE90901CB
:104930000C900D9002200190381D0290042041F24D
:1049400088350B902A4601A91A48FDF77DFB1A4CC1
:1049500040BB2A4669461748FDF795FC10BB0B2063
:104960000190062006902A4601A91248FDF76CFB2B
:10497000C0B92A4669460F48FDF724FC90B99DF856
:1049800003000006EFD42A4601A90A4802970B96B5
:10499000FDF75AFB30B92A4641460648FDF712FC9E
:1049A000002804D0A06940F40010A061002010B0DD
:1049B000BDE8F081E01500200010024030B58FB056
:1049C00000220E910221CDE9001004200A904FF43C
:1049D0004070CDE9052080000790C80203904FF099
:1049E00040700D92CDE908200B9241F288350C926F
:1049F0002A4669460848FDF727FB084C30B92A4685
:104A00000EA90548FDF73FFC002803D0A06940F43B
:104A10000010A0610FB030BDE01500200010024072
:104A20002DE9F74F92B000260F9652A010960096EF
:104A300015460068119041EA054010904FF0004083
:104A400000904FF44070CDE90660800008904FF46C
:104A5000805004904FF040700E96CDE9096004201C
:104A60000B900C964FF002084FF4457941F28837CD
:104A70000D963A4601A94048CDE90189FDF7E4FACF
:104A80003E4C00286ED13A4611A93B48FDF7FBFB8E
:104A9000002867D14FF0060B4FF00B0ACDF818B085
:104AA000CDF804A03A4601A93348FDF7CDFA002815
:104AB00058D13A460FA93048FDF784FBF0BB9DF86A
:104AC0003F000006EED44FF444700696CDE9018015
:104AD0003A4601A92848FDF7B7FA78BB3A4610A92B
:104AE0002548FDF7D0FB48BB3A4601A92248CDF83E
:104AF0000890FDF7A9FA08BB3A4669461E48FDF73B
:104B0000C2FBD8B9CDF818B0CDF804A03A4601A937
:104B10001948FDF799FA88B93A460FA91648FDF7E2
:104B200051FB58B99DF83C00C007EFD02020CDE9DB
:104B30000180A80706D005F0030000E012E0C0F1F4
:104B400004000544A8B206960B903A4601A90A480B
:104B5000FDF77AFA30B93A4607481299FDF793FB08
:104B6000002803D0A06940F40010A06115B0BDE892
:104B7000F08F000000000040E0150020001002400F
:104B80002DE9F0438FB00D468146904600204FF44A
:104B9000407106AB8A00009083E807004FF4805212
:104BA00004920A040E90CDE909020C900D9004269F
:104BB00002200B96CDE9010141F288373A4601A95E
:104BC0001E48FDF741FA1E4C58BB3A4649461B4861
:104BD000FDF759FB28BB45EA084040F00040009033
:104BE0004FF4417002903D463A4601A90B96134896
:104BF000FDF72AFAA8B92A4669461048FDF743FB93
:104C000078B90B200190062006902A4601A90B488E
:104C1000FDF71AFA28B92A4669460848FDF7D2FA7C
:104C200030B1A06940F40010A0610FB0BDE8F0837E
:104C30009DF803000006E8D4F7E70000E015002027
:104C40000010024070B515460C460646FCF767FC9E
:104C5000B4F5805F05D32A4621463046FFF7E0FED3
:104C600004E0EAB221463046FFF78AFFBDE8704013
:104C7000FCF732BF704700000FB4064810B503AA16
:104C8000029900F023FD034800F006F810BC5DF81F
:104C900014FB00006816002000B5034608E00A284F
:104CA00003D10D2000F08EFC0A2000F08BFC5B1C71
:104CB00018780028F3D100BD38B50D4CADF80010C0
:104CC000E27B824200D0E073A1F57F40FF3805D03F
:104CD00002224FF49A716846FDF76CFEE07BADF856
:104CE000000002224FF498716846FDF763FE38BD5C
:104CF0006006002038B50446002010EE101A00901F
:104D00002048814204DB10EE101A1F4881422DD842
:104D100010EE100AFBF7ACFC9FED1C1B53EC112BA3
:104D2000FBF705FB9FED1B1B53EC112BFBF718FC4E
:104D30009FED1A1B53EC112BFBF7A0FBFBF77FFC3D
:104D400081B2052C0CD2DFE804F00305121518001F
:104D5000009102E041F4803011E0684600F056FC1A
:104D60004FF4E8100090684600F050FC38BD41F464
:104D7000003004E041F4403001E041F48020009034
:104D8000EBE70000CDCC2C41CDCC2CC19A99999960
:104D9000999925409A999999999935400000000070
:104DA0000000F04001210846FCF7C8FB0022642304
:104DB00011461046FEF78AFC00210120FCF7BEFBDD
:104DC0000022642311461046FEF780FCEAE700004B
:104DD0002DE9F0473048002505803048007800284C
:104DE00058D02F4EDFF8BC80307820B1B8F80010D2
:104DF000491CA8F800102C48018841B32B4C2C48C2
:104E00002C4A278800881288DFF8AC908F4215D989
:104E10002A49098940B1DFF8A8C0BCF828308B4284
:104E200002D8DB1CACF8283042B1A8B9B9F8280088
:104E3000884205D8C01CA9F8280001E060B95AB121
:104E4000FDF73AFE000503D42088401C208005E0D1
:104E50002580A9F8285001E07F1C27801948007898
:104E600020B91948007808B1FFF792F8FBF74EFE19
:104E7000307800280ED0154C208800280AD0B8F8C9
:104E800000104646884205D1FFF76EF820880128B9
:104E900000D13580BDE8F0877C0600206606002042
:104EA0006306002086060020760600207406002097
:104EB0008E0600208C060020BC1B0020CC060020A3
:104EC000781B00206906002062060020840600206E
:104ED00010B50948002404800848007840B108480B
:104EE0004088032804D10748008808B9FFF73CF838
:104EF0000548048010BD00008006002063060020E5
:104F0000BC1B0020840600208606002010B5FCF79C
:104F10009DFFFBF789F9064A1178491C1170FBF7D0
:104F200087F9FEF70FFCBDE81040FEF74DB9000011
:104F30008609002070B52C4D94B00026286840F0FA
:104F400080502860286800F080501290274801683F
:104F500041F4404101600068022400F44040129096
:104F600001200090000401908001CDE90640192045
:104F700008904FF4B470CDE909040B9468460C9482
:104F8000FDF7C2FA00B1FEE7FCF7E8FF00B1FEE76B
:104F90000DA90F2081E851004FF4A05010904FF45C
:104FA0008050119006210DA8FDF7CAF900B1FEE767
:104FB0000D481038016841F01F0101600A480838A7
:104FC000016841F002010160286840F06F0028602C
:104FD0000548001D016841F001010160286840F4A6
:104FE0000030286014B070BD4038024000700040AE
:104FF0001048016841F4700101600F48016841F0F8
:10500000010101600C4A00210832116002680B4B5B
:105010001A400260031D0A4A1A60026822F48022C4
:10502000026005480C30016002495806803908606A
:105030007047000088ED00E000380240FFFFF6FEF8
:1050400010300024F0B42E490869C00756D02D480E
:1050500043782D4A002B536947D023F48073536162
:1050600000244470294D2878294B012821D1294E4C
:105070003088F0B1284A1088D8B118883788384469
:105080001880B3F90000002810884FF47A7700FBED
:1050900007F0B3F9007000DC7F4290FBF7F00004EA
:1050A000000C348014800BD0C862486940F00100C5
:1050B0004861B3F90000002805DD1888401E08E0AB
:1050C000F0BCFEF7CBBFB3F90000002803DA188864
:1050D000401C18800EE0486C20F4004048640868CA
:1050E00020F0010008602C7004E043F480735361E9
:1050F00001224270086920F001000861F0BC70478D
:105100000000014000000020000002407400002068
:105110007A000020820000208A000020F0B44FF0C6
:1051200080410869C0075CD02F4883782F4A002B44
:1051300013684DD023F480731360002484702C48CE
:105140000268521C02602B4D28782B4B012827D176
:105150002A4E308820B32A4A108808B3294F38686D
:10516000B6F900C060443860188837883844188021
:10517000B3F90000002810884FF47A7700FB07F09D
:10518000B3F9007000DC7F4290FBF7F00004000CE4
:10519000348014800BD0C862486940F00100486137
:1051A000B3F90000002805DD1888401E08E0F0BCB7
:1051B000FEF7EABFB3F90000002803DA1888401CA4
:1051C00018800AE0086820F0010008602C7004E0F4
:1051D00043F48073136001228270086920F001009B
:1051E0000861F0BC70470000000000201404024079
:1051F0009C000020750000207C000020840000201E
:105200008C00002094000020F0B42F4C2068C007D0
:1052100058D02E48C2782E49002A0A6849D022F078
:1052200010020A600023C3702A4D28782A4A0128F8
:1052300025D12A4E308810B329490888F8B1108842
:10524000378838441080B2F90000002808884FF4ED
:105250007A7700FB07F0B2F9007000DC7F4290FB28
:10526000F7F00004000C33800B800FD016491C317E
:1052700008601548001D016841F001010160B2F9A4
:105280000000002805DD1088401E08E0F0BCFEF795
:10529000DFBFB2F90000002803DA1088401C10803C
:1052A0000CE009481038016821F0010101602B7001
:1052B00004E042F010020A600121C170206820F071
:1052C00001002060F0BC7047100400400000002086
:1052D00014040240760000207E000020860000209A
:1052E0008E000020F0B42F4C2068C00758D02E4804
:1052F00002792E49002A0A6849D022F040020A6049
:10530000002303712A4D28782A4A012825D12A4EE4
:10531000308810B329490888F8B110883788384494
:105320001080B2F90000002808884FF47A7700FB5B
:1053300007F0B2F9007000DC7F4290FBF7F0000448
:10534000000C33800B800FD016491C3108601548C3
:10535000001D016841F001010160B2F90000002860
:1053600005DD1088401E08E0F0BCFEF7D5BFB2F99D
:105370000000002803DA1088401C10800CE0094867
:105380001038016821F0010101602B7004E042F047
:1053900040020A6001210171206820F001002060B4
:1053A000F0BC7047100800400000002014040240C8
:1053B000770000208000002088000020900000205E
:1053C00010B5154C20680169C943C90722D1C068CE
:1053D000C043C0071ED111498868421C8A60104A28
:1053E0001288904210D90B780E480022002B836956
:1053F00004D043F0040383610A7004E043F4802383
:105400008361012008708A60FCF758FA21686FF008
:105410000100086110BD00002C16002000000020D3
:10542000A4000020001002400F4810B50D49016093
:105430004FF47A71C16059214160002180220161DD
:1054400082604161FDF70CFA012206213720FCF74A
:1054500053FD3720FCF744FDBDE810400248FDF73E
:105460001BBA0000001400402C1600200148FDF774
:1054700013BA00002C160020F0B50268234D244E0C
:10548000244FDFF894C0254B4FF0804EA84209D03E
:10549000704507D0B04205D0B84203D0604501D076
:1054A000984203D122F070044A682243A8421BD0DC
:1054B000704519D0B04217D0B84215D0604513D00E
:1054C000984211D0164CA0420ED0164CA0420BD0E0
:1054D000154CA04208D0154CA04205D0144CA04257
:1054E00002D0144CA04203D122F44074CA68224373
:1054F00002608A68C2620A688262A84201D0984249
:1055000001D10969016301214161F0BD0000014041
:105510000004004000080040000C0040000401406E
:105520000040014000440140004801400018004094
:10553000001C00400020004006480168890602D493
:105540000068000705D50348001D0068C0B2FCF7DD
:105550001DBB7047004400401748016841F40051EA
:105560000160016841F40061016013482030016866
:1055700041F0E0610160016841F4E00101600F4920
:10558000012008600D494FF4925010390860081D41
:10559000016841F02C010160016841F40051016093
:1055A0000749402008704FF0E020D0F8041141F086
:1055B0004001C0F804117047000C0240184400403C
:1055C00026E400E003490A685206FCD50149091D9A
:1055D000086070470044004038B50024ADF8004032
:1055E000022240F202516846FDF762F9BDF8000060
:1055F0000449020501D4C00401D54C7038BD012016
:10560000487038BD60060020FEE700002DE9F0413B
:10561000234F0568012280213846FCF70CFC0A2143
:10562000491E0029FCDC002280213846FCF703FCDF
:105630000120401E0028FCDC1A4E00240122082113
:105640003046FCF7F8FB0520401E0028FCDC280251
:1056500001D5012200E0002220213046FCF7EBFBBF
:105660000520401E0028FCDC002208213046FCF703
:10567000E2FB0520401E0028FCDC6D000520401EDA
:105680000028FCDC641C182CD8DB01228021384661
:10569000FCF7D1FB0A20401E0028FCDCBDE8F081AD
:1056A000000C024000040240074AA2F1080352F82D
:1056B00021101A6820B162EA01001860FDF7AABA49
:1056C00001EA0200F9E700001400002037B5144693
:1056D0000846064B6A46214600F0DCF80446694657
:1056E000002000F06EFC20463EBD0000C35F0008B5
:1056F00002E008C8121F08C1002AFAD1704770479B
:10570000002001E001C1121F002AFBD170470000F8
:105710002DE9FF5F82B00021DDE90430020DDDF8E4
:1057200040B0034318D044F61050A2F2FF32424377
:105730001514119801281FD0A5EB0B00401C5FEA3F
:10574000000A4FF000064E4FDFF83891B046504641
:1057500015D5CAF1000413E0119801244AA30128C9
:1057600001D16FEA0B010298119AC0E90031C0E93A
:10577000024206B0BDE8F09FCBF10000DFE704462F
:105780000021404A491842EB0450CDE9001012E0D4
:10579000E00707D032463B4640464946FAF76EFEE0
:1057A0008046894632463B4610461946FAF766FE61
:1057B00006460F466410002CEAD1DDE90401DDE95C
:1057C0000023BAF1000F06DAFAF758FE42464B46BC
:1057D000FAF754FE05E0FAF7C3FE42464B46FAF7E5
:1057E000BFFE04460E460022284BFBF711F803D8F3
:1057F0004FF0FF30014607E00022254B204631469E
:10580000FAF795FDFAF7EBFF102409E0002C0ADB0C
:105810000A220023FAF75AFD039B30321A55641E00
:1058200050EA0102F2D1641C039AC4F1110314443A
:10583000119A012A03D0012208430DD10AE008433E
:1058400004D000204FF0110B119072E7A3EB0B0571
:105850006D1E0DE05B4504DD4FF0000205F1010512
:1058600004E003DA4FF00002A5F10105002AECD0B4
:1058700002981199C0E90231C0E9004579E70000BA
:10588000000014400000F03F300000000000F04332
:105890000000E03F2DE9FF4F95B09B468946064644
:1058A00000250FE2252877D100242746F84A012158
:1058B000059400E0044316F8013F203B01FA03F091
:1058C0001042F7D130782A2811D06FF02F033078AA
:1058D000A0F13002092A16D8059A44F0020402EB1E
:1058E000820203EB42021044761C0590EFE759F860
:1058F000042B0592002A03DA504244F40054059028
:1059000044F00204761C30782E2816D116F8010FC8
:1059100044F004042A280DD06FF02F023078A0F153
:105920003003092B09D807EB870302EB4303C718A1
:10593000761CF3E759F8047B761C30786C280FD07E
:1059400006DC4C2817D068280DD06A2814D104E052
:10595000742810D07A280FD10DE044F400140AE026
:1059600044F4801401E044F440147278824202D17D
:1059700004F58014761C761C307866280BD013DC76
:10598000582877D009DC002875D04528F6D046285D
:10599000F4D047281AD19DE118E0632835D0642857
:1059A00079D0652812D195E1702873D008DC67287A
:1059B000F1D069286FD06E280DD06F2806D1B5E0E0
:1059C00073282CD0752875D0782874D05A4617992A
:1059D00090476D1C75E1C4F30250022809D00328DA
:1059E0000DD0D9F8001004280DD00D6009F104097C
:1059F00067E1D9F80010EA17C1E90052F6E7D9F8D3
:105A000000100D80F2E70D70F0E719F8041B8DF817
:105A1000001000208DF80100EA46012003E059F84B
:105A200004AB4FF0FF3061074FF0000102D40DE0EE
:105A300008F101018846B9420FDA8045F8DB1AF80F
:105A400008100029F4D108E008F1010188468142DC
:105A5000FADB1AF808100029F6D105985B46A0EB8E
:105A6000080721463846179A00F094FA284400EBBC
:105A7000080507E04DE029E10DE01AF8010B5A4650
:105A800017999047B8F10108F7D25B46214638468E
:105A9000179A13E142E00A220092C4F302524FF037
:105AA000000A022A08D059F804CB032A4FEAEC7105
:105AB0000AD00DE029E02AE009F1070121F00702F0
:105AC000F2E802C1914609E00FFA8CFC4FEAEC7152
:105AD000042A03D14FFA8CFC4FEAEC71002907DA53
